{
  "_format": "hh-sol-artifact-1",
  "contractName": "RegisterCertificates",
  "sourceName": "contracts/RegisterCertificates.sol",
  "abi": [
    {
      "inputs": [],
      "stateMutability": "nonpayable",
      "type": "constructor"
    },
    {
      "anonymous": false,
      "inputs": [
        {
          "indexed": true,
          "internalType": "bytes32",
          "name": "role",
          "type": "bytes32"
        },
        {
          "indexed": true,
          "internalType": "bytes32",
          "name": "previousAdminRole",
          "type": "bytes32"
        },
        {
          "indexed": true,
          "internalType": "bytes32",
          "name": "newAdminRole",
          "type": "bytes32"
        }
      ],
      "name": "RoleAdminChanged",
      "type": "event"
    },
    {
      "anonymous": false,
      "inputs": [
        {
          "indexed": true,
          "internalType": "bytes32",
          "name": "role",
          "type": "bytes32"
        },
        {
          "indexed": true,
          "internalType": "address",
          "name": "account",
          "type": "address"
        },
        {
          "indexed": true,
          "internalType": "address",
          "name": "sender",
          "type": "address"
        }
      ],
      "name": "RoleGranted",
      "type": "event"
    },
    {
      "anonymous": false,
      "inputs": [
        {
          "indexed": true,
          "internalType": "bytes32",
          "name": "role",
          "type": "bytes32"
        },
        {
          "indexed": true,
          "internalType": "address",
          "name": "account",
          "type": "address"
        },
        {
          "indexed": true,
          "internalType": "address",
          "name": "sender",
          "type": "address"
        }
      ],
      "name": "RoleRevoked",
      "type": "event"
    },
    {
      "anonymous": false,
      "inputs": [
        {
          "indexed": true,
          "internalType": "uint256",
          "name": "registerCertificateId",
          "type": "uint256"
        },
        {
          "indexed": true,
          "internalType": "string",
          "name": "oldOwner",
          "type": "string"
        },
        {
          "indexed": true,
          "internalType": "string",
          "name": "newOwner",
          "type": "string"
        }
      ],
      "name": "Submit",
      "type": "event"
    },
    {
      "anonymous": false,
      "inputs": [
        {
          "indexed": true,
          "internalType": "uint256",
          "name": "registerCertificateId",
          "type": "uint256"
        }
      ],
      "name": "Transfer",
      "type": "event"
    },
    {
      "inputs": [],
      "name": "DEFAULT_ADMIN_ROLE",
      "outputs": [
        {
          "internalType": "bytes32",
          "name": "",
          "type": "bytes32"
        }
      ],
      "stateMutability": "view",
      "type": "function"
    },
    {
      "inputs": [
        {
          "internalType": "uint256",
          "name": "id",
          "type": "uint256"
        },
        {
          "internalType": "uint256",
          "name": "idrole",
          "type": "uint256"
        },
        {
          "internalType": "bytes32",
          "name": "role",
          "type": "bytes32"
        },
        {
          "internalType": "bytes",
          "name": "signature",
          "type": "bytes"
        }
      ],
      "name": "Siging",
      "outputs": [],
      "stateMutability": "nonpayable",
      "type": "function"
    },
    {
      "inputs": [
        {
          "internalType": "uint256",
          "name": "id",
          "type": "uint256"
        }
      ],
      "name": "SubmitRegisterCertificate",
      "outputs": [],
      "stateMutability": "nonpayable",
      "type": "function"
    },
    {
      "inputs": [
        {
          "internalType": "bytes32",
          "name": "_bytes32",
          "type": "bytes32"
        }
      ],
      "name": "bytes32ToString",
      "outputs": [
        {
          "internalType": "string",
          "name": "",
          "type": "string"
        }
      ],
      "stateMutability": "pure",
      "type": "function"
    },
    {
      "inputs": [],
      "name": "currentId",
      "outputs": [
        {
          "internalType": "uint256",
          "name": "",
          "type": "uint256"
        }
      ],
      "stateMutability": "view",
      "type": "function"
    },
    {
      "inputs": [
        {
          "internalType": "bytes32",
          "name": "_messageHash",
          "type": "bytes32"
        }
      ],
      "name": "getEthSignedMessageHash",
      "outputs": [
        {
          "internalType": "bytes32",
          "name": "",
          "type": "bytes32"
        }
      ],
      "stateMutability": "pure",
      "type": "function"
    },
    {
      "inputs": [
        {
          "internalType": "uint256",
          "name": "id",
          "type": "uint256"
        },
        {
          "internalType": "string",
          "name": "vin",
          "type": "string"
        },
        {
          "internalType": "string",
          "name": "vrp",
          "type": "string"
        },
        {
          "internalType": "string",
          "name": "uri",
          "type": "string"
        },
        {
          "internalType": "string",
          "name": "oldOwner",
          "type": "string"
        },
        {
          "internalType": "string",
          "name": "newOwner",
          "type": "string"
        }
      ],
      "name": "getMessageHashAccepted",
      "outputs": [
        {
          "internalType": "bytes32",
          "name": "",
          "type": "bytes32"
        }
      ],
      "stateMutability": "pure",
      "type": "function"
    },
    {
      "inputs": [
        {
          "internalType": "uint256",
          "name": "id",
          "type": "uint256"
        },
        {
          "internalType": "string",
          "name": "message",
          "type": "string"
        }
      ],
      "name": "getMessageHashDeclined",
      "outputs": [
        {
          "internalType": "bytes32",
          "name": "",
          "type": "bytes32"
        }
      ],
      "stateMutability": "pure",
      "type": "function"
    },
    {
      "inputs": [
        {
          "internalType": "uint256",
          "name": "id",
          "type": "uint256"
        }
      ],
      "name": "getRegisterCertificates_Government",
      "outputs": [
        {
          "components": [
            {
              "internalType": "uint256",
              "name": "registerCertificateId",
              "type": "uint256"
            },
            {
              "internalType": "string",
              "name": "vin",
              "type": "string"
            },
            {
              "internalType": "string",
              "name": "vrp",
              "type": "string"
            },
            {
              "internalType": "string",
              "name": "uri",
              "type": "string"
            },
            {
              "internalType": "string",
              "name": "owner",
              "type": "string"
            },
            {
              "internalType": "bytes[5]",
              "name": "signers",
              "type": "bytes[5]"
            },
            {
              "internalType": "enum RegisterCertificates.Status[5]",
              "name": "status",
              "type": "uint8[5]"
            }
          ],
          "internalType": "struct RegisterCertificates.RegisterCertificate",
          "name": "",
          "type": "tuple"
        }
      ],
      "stateMutability": "view",
      "type": "function"
    },
    {
      "inputs": [
        {
          "internalType": "bytes32",
          "name": "role",
          "type": "bytes32"
        }
      ],
      "name": "getRoleAdmin",
      "outputs": [
        {
          "internalType": "bytes32",
          "name": "",
          "type": "bytes32"
        }
      ],
      "stateMutability": "view",
      "type": "function"
    },
    {
      "inputs": [
        {
          "internalType": "uint256",
          "name": "id",
          "type": "uint256"
        }
      ],
      "name": "getTemporaryRegisterCertificates_Government",
      "outputs": [
        {
          "components": [
            {
              "internalType": "uint256",
              "name": "registerCertificateId",
              "type": "uint256"
            },
            {
              "internalType": "string",
              "name": "vin",
              "type": "string"
            },
            {
              "internalType": "string",
              "name": "vrp",
              "type": "string"
            },
            {
              "internalType": "string",
              "name": "uri",
              "type": "string"
            },
            {
              "internalType": "string",
              "name": "oldOwner",
              "type": "string"
            },
            {
              "internalType": "string",
              "name": "newOwner",
              "type": "string"
            },
            {
              "internalType": "uint8",
              "name": "requireSigners",
              "type": "uint8"
            },
            {
              "internalType": "bytes[5]",
              "name": "signers",
              "type": "bytes[5]"
            },
            {
              "internalType": "enum RegisterCertificates.Status[5]",
              "name": "status",
              "type": "uint8[5]"
            }
          ],
          "internalType": "struct RegisterCertificates.TemporaryRegisterCertificate",
          "name": "",
          "type": "tuple"
        }
      ],
      "stateMutability": "view",
      "type": "function"
    },
    {
      "inputs": [
        {
          "internalType": "string",
          "name": "vin",
          "type": "string"
        }
      ],
      "name": "getvin",
      "outputs": [
        {
          "internalType": "uint256",
          "name": "",
          "type": "uint256"
        }
      ],
      "stateMutability": "view",
      "type": "function"
    },
    {
      "inputs": [
        {
          "internalType": "string",
          "name": "vrp",
          "type": "string"
        }
      ],
      "name": "getvrp",
      "outputs": [
        {
          "internalType": "uint256",
          "name": "",
          "type": "uint256"
        }
      ],
      "stateMutability": "view",
      "type": "function"
    },
    {
      "inputs": [
        {
          "internalType": "bytes32",
          "name": "role",
          "type": "bytes32"
        },
        {
          "internalType": "address",
          "name": "account",
          "type": "address"
        }
      ],
      "name": "grantRole",
      "outputs": [],
      "stateMutability": "nonpayable",
      "type": "function"
    },
    {
      "inputs": [
        {
          "internalType": "bytes32",
          "name": "role",
          "type": "bytes32"
        },
        {
          "internalType": "address",
          "name": "account",
          "type": "address"
        }
      ],
      "name": "hasRole",
      "outputs": [
        {
          "internalType": "bool",
          "name": "",
          "type": "bool"
        }
      ],
      "stateMutability": "view",
      "type": "function"
    },
    {
      "inputs": [
        {
          "internalType": "string",
          "name": "vin",
          "type": "string"
        },
        {
          "internalType": "string",
          "name": "vrp",
          "type": "string"
        },
        {
          "internalType": "string",
          "name": "uri",
          "type": "string"
        },
        {
          "internalType": "string",
          "name": "owner",
          "type": "string"
        }
      ],
      "name": "mintRegisterCertificate",
      "outputs": [],
      "stateMutability": "nonpayable",
      "type": "function"
    },
    {
      "inputs": [
        {
          "internalType": "bytes32",
          "name": "_ethSignedMessageHash",
          "type": "bytes32"
        },
        {
          "internalType": "bytes",
          "name": "_signature",
          "type": "bytes"
        }
      ],
      "name": "recoverSigner",
      "outputs": [
        {
          "internalType": "address",
          "name": "",
          "type": "address"
        }
      ],
      "stateMutability": "pure",
      "type": "function"
    },
    {
      "inputs": [
        {
          "internalType": "bytes32",
          "name": "role",
          "type": "bytes32"
        },
        {
          "internalType": "address",
          "name": "account",
          "type": "address"
        }
      ],
      "name": "renounceRole",
      "outputs": [],
      "stateMutability": "nonpayable",
      "type": "function"
    },
    {
      "inputs": [
        {
          "internalType": "bytes32",
          "name": "role",
          "type": "bytes32"
        },
        {
          "internalType": "address",
          "name": "account",
          "type": "address"
        }
      ],
      "name": "revokeRole",
      "outputs": [],
      "stateMutability": "nonpayable",
      "type": "function"
    },
    {
      "inputs": [
        {
          "internalType": "bytes",
          "name": "sig",
          "type": "bytes"
        }
      ],
      "name": "splitSignature",
      "outputs": [
        {
          "internalType": "bytes32",
          "name": "r",
          "type": "bytes32"
        },
        {
          "internalType": "bytes32",
          "name": "s",
          "type": "bytes32"
        },
        {
          "internalType": "uint8",
          "name": "v",
          "type": "uint8"
        }
      ],
      "stateMutability": "pure",
      "type": "function"
    },
    {
      "inputs": [
        {
          "internalType": "bytes4",
          "name": "interfaceId",
          "type": "bytes4"
        }
      ],
      "name": "supportsInterface",
      "outputs": [
        {
          "internalType": "bool",
          "name": "",
          "type": "bool"
        }
      ],
      "stateMutability": "view",
      "type": "function"
    },
    {
      "inputs": [
        {
          "internalType": "uint256",
          "name": "certificatId",
          "type": "uint256"
        },
        {
          "internalType": "string",
          "name": "oldOwner",
          "type": "string"
        },
        {
          "internalType": "string",
          "name": "newOwner",
          "type": "string"
        }
      ],
      "name": "transfer",
      "outputs": [],
      "stateMutability": "nonpayable",
      "type": "function"
    },
    {
      "inputs": [
        {
          "internalType": "address",
          "name": "_signer",
          "type": "address"
        },
        {
          "internalType": "uint256",
          "name": "id",
          "type": "uint256"
        },
        {
          "internalType": "string",
          "name": "vin",
          "type": "string"
        },
        {
          "internalType": "string",
          "name": "vrp",
          "type": "string"
        },
        {
          "internalType": "string",
          "name": "uri",
          "type": "string"
        },
        {
          "internalType": "string",
          "name": "oldOwner",
          "type": "string"
        },
        {
          "internalType": "string",
          "name": "newOwner",
          "type": "string"
        },
        {
          "internalType": "bytes",
          "name": "signature",
          "type": "bytes"
        }
      ],
      "name": "verifyAccepted",
      "outputs": [
        {
          "internalType": "bool",
          "name": "",
          "type": "bool"
        }
      ],
      "stateMutability": "pure",
      "type": "function"
    },
    {
      "inputs": [
        {
          "internalType": "address",
          "name": "_signer",
          "type": "address"
        },
        {
          "internalType": "uint256",
          "name": "id",
          "type": "uint256"
        },
        {
          "internalType": "bytes",
          "name": "signature",
          "type": "bytes"
        }
      ],
      "name": "verifyDeclined",
      "outputs": [
        {
          "internalType": "bool",
          "name": "",
          "type": "bool"
        }
      ],
      "stateMutability": "pure",
      "type": "function"
    }
  ],
  "bytecode": "0x60806040523480156200001157600080fd5b50620000276000801b336200021960201b60201c565b6200003e60016200030a60201b620031bd1760201c565b60016007600080815260200190815260200160002060007f454d504c4f594552000000000000000000000000000000000000000000000000815260200190815260200160002060006101000a81548160ff0219169083151502179055506001600760006001815260200190815260200160002060007f474f5645524e4d454e5400000000000000000000000000000000000000000000815260200190815260200160002060006101000a81548160ff0219169083151502179055506001600760006002815260200190815260200160002060007f504f4c4943450000000000000000000000000000000000000000000000000000815260200190815260200160002060006101000a81548160ff0219169083151502179055506001600760006003815260200190815260200160002060007f47454e4441524d45524945000000000000000000000000000000000000000000815260200190815260200160002060006101000a81548160ff0219169083151502179055506001600760006004815260200190815260200160002060007f5441580000000000000000000000000000000000000000000000000000000000815260200190815260200160002060006101000a81548160ff02191690831515021790555062000392565b6200022b82826200032060201b60201c565b6200030657600160008084815260200190815260200160002060000160008373ffffffffffffffffffffffffffffffffffffffff1673ffffffffffffffffffffffffffffffffffffffff16815260200190815260200160002060006101000a81548160ff021916908315150217905550620002ab6200038a60201b60201c565b73ffffffffffffffffffffffffffffffffffffffff168173ffffffffffffffffffffffffffffffffffffffff16837f2f8788117e7eff1d82e926ec794901d17c78024a50270940304540a733656f0d60405160405180910390a45b5050565b6001816000016000828254019250508190555050565b600080600084815260200190815260200160002060000160008373ffffffffffffffffffffffffffffffffffffffff1673ffffffffffffffffffffffffffffffffffffffff16815260200190815260200160002060009054906101000a900460ff16905092915050565b600033905090565b615cc280620003a26000396000f3fe608060405234801561001057600080fd5b50600436106101585760003560e01c8063a217fddf116100c3578063d547741f1161007c578063d547741f14610435578063d5ba17f614610451578063d5dbb7e114610481578063e00dd161146104b1578063f4fdbbb7146104cf578063fa540801146104ff57610158565b8063a217fddf14610339578063a7bb580314610357578063b5c6081914610389578063b8066c1e146103b9578063bc1eb2c2146103e9578063c1a4098b1461041957610158565b8063854352fd11610115578063854352fd1461024157806386b532861461027157806391d148541461028d5780639201de55146102bd57806397aba7f9146102ed578063993ae8931461031d57610158565b806301ffc9a71461015d5780631b925c051461018d578063248a9ca3146101a95780632f2ff15d146101d957806336568abe146101f55780635d76a1ec14610211575b600080fd5b61017760048036038101906101729190613c9e565b61052f565b6040516101849190613ce6565b60405180910390f35b6101a760048036038101906101a29190613d37565b6105a9565b005b6101c360048036038101906101be9190613d9a565b6115ac565b6040516101d09190613dd6565b60405180910390f35b6101f360048036038101906101ee9190613e4f565b6115cb565b005b61020f600480360381019061020a9190613e4f565b6115ec565b005b61022b60048036038101906102269190613fd5565b61166f565b604051610238919061402d565b60405180910390f35b61025b60048036038101906102569190614048565b611697565b6040516102689190613dd6565b60405180910390f35b61028b600480360381019061028691906140a4565b6116ca565b005b6102a760048036038101906102a29190613e4f565b611903565b6040516102b49190613ce6565b60405180910390f35b6102d760048036038101906102d29190613d9a565b61196d565b6040516102e491906141fa565b60405180910390f35b610307600480360381019061030291906142bd565b611a43565b6040516103149190614328565b60405180910390f35b61033760048036038101906103329190614343565b611ab2565b005b61034161212f565b60405161034e9190613dd6565b60405180910390f35b610371600480360381019061036c91906143ce565b612136565b60405161038093929190614433565b60405180910390f35b6103a3600480360381019061039e9190613fd5565b61219e565b6040516103b0919061402d565b60405180910390f35b6103d360048036038101906103ce9190613d37565b6121c6565b6040516103e091906147d8565b60405180910390f35b61040360048036038101906103fe9190613d37565b612636565b60405161041091906148b3565b60405180910390f35b610433600480360381019061042e91906148d5565b6129f6565b005b61044f600480360381019061044a9190613e4f565b613020565b005b61046b60048036038101906104669190614958565b613041565b6040516104789190613ce6565b60405180910390f35b61049b600480360381019061049691906149c7565b6130d5565b6040516104a89190613ce6565b60405180910390f35b6104b961313d565b6040516104c6919061402d565b60405180910390f35b6104e960048036038101906104e49190614b25565b61314e565b6040516104f69190613dd6565b60405180910390f35b61051960048036038101906105149190613d9a565b61318d565b6040516105269190613dd6565b60405180910390f35b60007f7965db0b000000000000000000000000000000000000000000000000000000007bffffffffffffffffffffffffffffffffffffffffffffffffffffffff1916827bffffffffffffffffffffffffffffffffffffffffffffffffffffffff191614806105a257506105a1826131d3565b5b9050919050565b60006002600083815260200190815260200160002060405180610120016040529081600082015481526020016001820180546105e490614c6d565b80601f016020809104026020016040519081016040528092919081815260200182805461061090614c6d565b801561065d5780601f106106325761010080835404028352916020019161065d565b820191906000526020600020905b81548152906001019060200180831161064057829003601f168201915b5050505050815260200160028201805461067690614c6d565b80601f01602080910402602001604051908101604052809291908181526020018280546106a290614c6d565b80156106ef5780601f106106c4576101008083540402835291602001916106ef565b820191906000526020600020905b8154815290600101906020018083116106d257829003601f168201915b5050505050815260200160038201805461070890614c6d565b80601f016020809104026020016040519081016040528092919081815260200182805461073490614c6d565b80156107815780601f1061075657610100808354040283529160200191610781565b820191906000526020600020905b81548152906001019060200180831161076457829003601f168201915b5050505050815260200160048201805461079a90614c6d565b80601f01602080910402602001604051908101604052809291908181526020018280546107c690614c6d565b80156108135780601f106107e857610100808354040283529160200191610813565b820191906000526020600020905b8154815290600101906020018083116107f657829003601f168201915b5050505050815260200160058201805461082c90614c6d565b80601f016020809104026020016040519081016040528092919081815260200182805461085890614c6d565b80156108a55780601f1061087a576101008083540402835291602001916108a5565b820191906000526020600020905b81548152906001019060200180831161088857829003601f168201915b505050505081526020016006820160009054906101000a900460ff1660ff1660ff16815260200160078201600580602002604051908101604052809291906000905b8282101561098a5783820180546108fd90614c6d565b80601f016020809104026020016040519081016040528092919081815260200182805461092990614c6d565b80156109765780601f1061094b57610100808354040283529160200191610976565b820191906000526020600020905b81548152906001019060200180831161095957829003601f168201915b5050505050815260200190600101906108e7565b505050508152602001600c8201600580602002604051908101604052809291908260058015610a03576020028201916000905b82829054906101000a900460ff1660038111156109dd576109dc6145fd565b5b815260200190600101906020826000010492830192600103820291508084116109bd5790505b505050505081525050905060008160c0015160ff16905060008114610a5d576040517f08c379a0000000000000000000000000000000000000000000000000000000008152600401610a5490614cea565b60405180910390fd5b60016003811115610a7157610a706145fd565b5b826101000151600060058110610a8a57610a89614d0a565b5b60200201516003811115610aa157610aa06145fd565b5b14610ae1576040517f08c379a0000000000000000000000000000000000000000000000000000000008152600401610ad890614d85565b60405180910390fd5b60016003811115610af557610af46145fd565b5b826101000151600160058110610b0e57610b0d614d0a565b5b60200201516003811115610b2557610b246145fd565b5b14610b65576040517f08c379a0000000000000000000000000000000000000000000000000000000008152600401610b5c90614df1565b60405180910390fd5b60016003811115610b7957610b786145fd565b5b826101000151600260058110610b9257610b91614d0a565b5b60200201516003811115610ba957610ba86145fd565b5b14610be9576040517f08c379a0000000000000000000000000000000000000000000000000000000008152600401610be090614e5d565b60405180910390fd5b60016003811115610bfd57610bfc6145fd565b5b826101000151600360058110610c1657610c15614d0a565b5b60200201516003811115610c2d57610c2c6145fd565b5b14610c6d576040517f08c379a0000000000000000000000000000000000000000000000000000000008152600401610c6490614ec9565b60405180910390fd5b60016003811115610c8157610c806145fd565b5b826101000151600460058110610c9a57610c99614d0a565b5b60200201516003811115610cb157610cb06145fd565b5b14610cf1576040517f08c379a0000000000000000000000000000000000000000000000000000000008152600401610ce890614f35565b60405180910390fd5b60006040518060e00160405280846000015181526020018460200151815260200184604001518152602001846060015181526020018460a0015181526020018460e00151815260200184610100015181525090508060036000868152602001908152602001600020600082015181600001556020820151816001019081610d789190615101565b506040820151816002019081610d8e9190615101565b506060820151816003019081610da49190615101565b506080820151816004019081610dba9190615101565b5060a082015181600501906005610dd2929190613982565b5060c082015181600a01906005610dea9291906139ce565b50905050600060048460800151604051610e04919061520f565b90815260200160405180910390208054905090506001811115610f8a576000600182610e309190615255565b67ffffffffffffffff811115610e4957610e48613eaa565b5b604051908082528060200260200182016040528015610e775781602001602082028036833780820191505090505b5090506000805b83811015610f4b578760048860800151604051610e9b919061520f565b90815260200160405180910390208281548110610ebb57610eba614d0a565b5b906000526020600020015414610f385760048760800151604051610edf919061520f565b90815260200160405180910390208181548110610eff57610efe614d0a565b5b9060005260206000200154838381518110610f1d57610f1c614d0a565b5b6020026020010181815250508180610f3490615289565b9250505b8080610f4390615289565b915050610e7e565b508160048760800151604051610f61919061520f565b90815260200160405180910390209080519060200190610f82929190613a77565b50505061100b565b600067ffffffffffffffff811115610fa557610fa4613eaa565b5b604051908082528060200260200182016040528015610fd35781602001602082028036833780820191505090505b5060048560800151604051610fe8919061520f565b90815260200160405180910390209080519060200190611009929190613a77565b505b600060048560a00151604051611021919061520f565b9081526020016040518091039020805490509050600060018261104491906152d1565b67ffffffffffffffff81111561105d5761105c613eaa565b5b60405190808252806020026020018201604052801561108b5781602001602082028036833780820191505090505b50905060005b8281101561110a5760048760a001516040516110ad919061520f565b908152602001604051809103902081815481106110cd576110cc614d0a565b5b90600052602060002001548282815181106110eb576110ea614d0a565b5b602002602001018181525050808061110290615289565b915050611091565b50856000015181838151811061112357611122614d0a565b5b6020026020010181815250508060048760a00151604051611144919061520f565b90815260200160405180910390209080519060200190611165929190613a77565b5085600001516005876020015160405161117f919061520f565b9081526020016040518091039020819055508560000151600687604001516040516111aa919061520f565b90815260200160405180910390208190555060405180610120016040528060008152602001604051806020016040528060008152508152602001604051806020016040528060008152508152602001604051806020016040528060008152508152602001604051806020016040528060008152508152602001604051806020016040528060008152508152602001600060ff1681526020016040518060a001604052806040518060400160405280600981526020017f4e4f545349474e4544000000000000000000000000000000000000000000000081525081526020016040518060400160405280600981526020017f4e4f545349474e4544000000000000000000000000000000000000000000000081525081526020016040518060400160405280600981526020017f4e4f545349474e4544000000000000000000000000000000000000000000000081525081526020016040518060400160405280600981526020017f4e4f545349474e4544000000000000000000000000000000000000000000000081525081526020016040518060400160405280600981526020017f4e4f545349474e4544000000000000000000000000000000000000000000000081525081525081526020016040518060a0016040528060006003811115611396576113956145fd565b5b60038111156113a8576113a76145fd565b5b8152602001600060038111156113c1576113c06145fd565b5b60038111156113d3576113d26145fd565b5b8152602001600060038111156113ec576113eb6145fd565b5b60038111156113fe576113fd6145fd565b5b815260200160006003811115611417576114166145fd565b5b6003811115611429576114286145fd565b5b815260200160006003811115611442576114416145fd565b5b6003811115611454576114536145fd565b5b81525081525060026000886000015181526020019081526020016000206000820151816000015560208201518160010190816114909190615101565b5060408201518160020190816114a69190615101565b5060608201518160030190816114bc9190615101565b5060808201518160040190816114d29190615101565b5060a08201518160050190816114e89190615101565b5060c08201518160060160006101000a81548160ff021916908360ff16021790555060e082015181600701906005611521929190613982565b5061010082015181600c0190600561153a9291906139ce565b509050508560a00151604051611550919061520f565b6040518091039020866080015160405161156a919061520f565b604051809103902087600001517fca4a99f6e8b89e970d8586b120d211e48f85272f8925990687b53373ec0205de60405160405180910390a450505050505050565b6000806000838152602001908152602001600020600101549050919050565b6115d4826115ac565b6115dd8161323d565b6115e78383613251565b505050565b6115f4613331565b73ffffffffffffffffffffffffffffffffffffffff168173ffffffffffffffffffffffffffffffffffffffff1614611661576040517f08c379a000000000000000000000000000000000000000000000000000000000815260040161165890615377565b60405180910390fd5b61166b8282613339565b5050565b6000600582604051611681919061520f565b9081526020016040518091039020549050919050565b600082826040516020016116ac9291906153b8565b60405160208183030381529060405280519060200120905092915050565b6116f47f454d504c4f59455200000000000000000000000000000000000000000000000033611903565b611733576040517f08c379a000000000000000000000000000000000000000000000000000000000815260040161172a90615452565b60405180910390fd5b600061173e8561166f565b1461177e576040517f08c379a0000000000000000000000000000000000000000000000000000000008152600401611775906154e4565b60405180910390fd5b60006117898461219e565b146117c9576040517f08c379a00000000000000000000000000000000000000000000000000000000081526004016117c090615576565b60405180910390fd5b60006117d5600161341a565b90506117e160016131bd565b6117ef818686868687613428565b600260008381526020019081526020016000206000820151816000015560208201518160010190816118219190615101565b5060408201518160020190816118379190615101565b50606082015181600301908161184d9190615101565b5060808201518160040190816118639190615101565b5060a08201518160050190816118799190615101565b5060c08201518160060160006101000a81548160ff021916908360ff16021790555060e0820151816007019060056118b2929190613982565b5061010082015181600c019060056118cb9291906139ce565b50905050807f248dd4076d0a389d795107efafd558ce7f31ae37b441ccb9a599c60868f480d560405160405180910390a25050505050565b600080600084815260200190815260200160002060000160008373ffffffffffffffffffffffffffffffffffffffff1673ffffffffffffffffffffffffffffffffffffffff16815260200190815260200160002060009054906101000a900460ff16905092915050565b60606000602067ffffffffffffffff81111561198c5761198b613eaa565b5b6040519080825280601f01601f1916602001820160405280156119be5781602001600182028036833780820191505090505b50905060005b6020811015611a39578381602081106119e0576119df614d0a565b5b1a60f81b8282815181106119f7576119f6614d0a565b5b60200101907effffffffffffffffffffffffffffffffffffffffffffffffffffffffffffff1916908160001a9053508080611a3190615289565b9150506119c4565b5080915050919050565b600080600080611a5285612136565b92509250925060018682858560405160008152602001604052604051611a7b9493929190615596565b6020604051602081039080840390855afa158015611a9d573d6000803e3d6000fd5b50505060206040510351935050505092915050565b611adc7f454d504c4f59455200000000000000000000000000000000000000000000000033611903565b611b1b576040517f08c379a0000000000000000000000000000000000000000000000000000000008152600401611b1290615452565b60405180910390fd5b6000600360008581526020019081526020016000206040518060e001604052908160008201548152602001600182018054611b5590614c6d565b80601f0160208091040260200160405190810160405280929190818152602001828054611b8190614c6d565b8015611bce5780601f10611ba357610100808354040283529160200191611bce565b820191906000526020600020905b815481529060010190602001808311611bb157829003601f168201915b50505050508152602001600282018054611be790614c6d565b80601f0160208091040260200160405190810160405280929190818152602001828054611c1390614c6d565b8015611c605780601f10611c3557610100808354040283529160200191611c60565b820191906000526020600020905b815481529060010190602001808311611c4357829003601f168201915b50505050508152602001600382018054611c7990614c6d565b80601f0160208091040260200160405190810160405280929190818152602001828054611ca590614c6d565b8015611cf25780601f10611cc757610100808354040283529160200191611cf2565b820191906000526020600020905b815481529060010190602001808311611cd557829003601f168201915b50505050508152602001600482018054611d0b90614c6d565b80601f0160208091040260200160405190810160405280929190818152602001828054611d3790614c6d565b8015611d845780601f10611d5957610100808354040283529160200191611d84565b820191906000526020600020905b815481529060010190602001808311611d6757829003601f168201915b5050505050815260200160058201600580602002604051908101604052809291906000905b82821015611e4c578382018054611dbf90614c6d565b80601f0160208091040260200160405190810160405280929190818152602001828054611deb90614c6d565b8015611e385780601f10611e0d57610100808354040283529160200191611e38565b820191906000526020600020905b815481529060010190602001808311611e1b57829003601f168201915b505050505081526020019060010190611da9565b505050508152602001600a8201600580602002604051908101604052809291908260058015611ec5576020028201916000905b82829054906101000a900460ff166003811115611e9f57611e9e6145fd565b5b81526020019060010190602082600001049283019260010382029150808411611e7f5790505b50505050508152505090506000600360008681526020019081526020016000206004018054611ef390614c6d565b80601f0160208091040260200160405190810160405280929190818152602001828054611f1f90614c6d565b8015611f6c5780601f10611f4157610100808354040283529160200191611f6c565b820191906000526020600020905b815481529060010190602001808311611f4f57829003601f168201915b5050505050905083604051602001611f84919061520f565b6040516020818303038152906040528051906020012081604051602001611fab919061520f565b6040516020818303038152906040528051906020012014612001576040517f08c379a0000000000000000000000000000000000000000000000000000000008152600401611ff89061564d565b60405180910390fd5b61201b858360200151846040015185606001518888613428565b6002600087815260200190815260200160002060008201518160000155602082015181600101908161204d9190615101565b5060408201518160020190816120639190615101565b5060608201518160030190816120799190615101565b50608082015181600401908161208f9190615101565b5060a08201518160050190816120a59190615101565b5060c08201518160060160006101000a81548160ff021916908360ff16021790555060e0820151816007019060056120de929190613982565b5061010082015181600c019060056120f79291906139ce565b50905050847f248dd4076d0a389d795107efafd558ce7f31ae37b441ccb9a599c60868f480d560405160405180910390a25050505050565b6000801b81565b6000806000604184511461217f576040517f08c379a0000000000000000000000000000000000000000000000000000000008152600401612176906156b9565b60405180910390fd5b6020840151925060408401519150606084015160001a90509193909250565b60006006826040516121b0919061520f565b9081526020016040518091039020549050919050565b6121ce613ac4565b60026000838152602001908152602001600020604051806101200160405290816000820154815260200160018201805461220790614c6d565b80601f016020809104026020016040519081016040528092919081815260200182805461223390614c6d565b80156122805780601f1061225557610100808354040283529160200191612280565b820191906000526020600020905b81548152906001019060200180831161226357829003601f168201915b5050505050815260200160028201805461229990614c6d565b80601f01602080910402602001604051908101604052809291908181526020018280546122c590614c6d565b80156123125780601f106122e757610100808354040283529160200191612312565b820191906000526020600020905b8154815290600101906020018083116122f557829003601f168201915b5050505050815260200160038201805461232b90614c6d565b80601f016020809104026020016040519081016040528092919081815260200182805461235790614c6d565b80156123a45780601f10612379576101008083540402835291602001916123a4565b820191906000526020600020905b81548152906001019060200180831161238757829003601f168201915b505050505081526020016004820180546123bd90614c6d565b80601f01602080910402602001604051908101604052809291908181526020018280546123e990614c6d565b80156124365780601f1061240b57610100808354040283529160200191612436565b820191906000526020600020905b81548152906001019060200180831161241957829003601f168201915b5050505050815260200160058201805461244f90614c6d565b80601f016020809104026020016040519081016040528092919081815260200182805461247b90614c6d565b80156124c85780601f1061249d576101008083540402835291602001916124c8565b820191906000526020600020905b8154815290600101906020018083116124ab57829003601f168201915b505050505081526020016006820160009054906101000a900460ff1660ff1660ff16815260200160078201600580602002604051908101604052809291906000905b828210156125ad57838201805461252090614c6d565b80601f016020809104026020016040519081016040528092919081815260200182805461254c90614c6d565b80156125995780601f1061256e57610100808354040283529160200191612599565b820191906000526020600020905b81548152906001019060200180831161257c57829003601f168201915b50505050508152602001906001019061250a565b505050508152602001600c8201600580602002604051908101604052809291908260058015612626576020028201916000905b82829054906101000a900460ff166003811115612600576125ff6145fd565b5b815260200190600101906020826000010492830192600103820291508084116125e05790505b5050505050815250509050919050565b61263e613b1f565b600360008381526020019081526020016000206040518060e00160405290816000820154815260200160018201805461267690614c6d565b80601f01602080910402602001604051908101604052809291908181526020018280546126a290614c6d565b80156126ef5780601f106126c4576101008083540402835291602001916126ef565b820191906000526020600020905b8154815290600101906020018083116126d257829003601f168201915b5050505050815260200160028201805461270890614c6d565b80601f016020809104026020016040519081016040528092919081815260200182805461273490614c6d565b80156127815780601f1061275657610100808354040283529160200191612781565b820191906000526020600020905b81548152906001019060200180831161276457829003601f168201915b5050505050815260200160038201805461279a90614c6d565b80601f01602080910402602001604051908101604052809291908181526020018280546127c690614c6d565b80156128135780601f106127e857610100808354040283529160200191612813565b820191906000526020600020905b8154815290600101906020018083116127f657829003601f168201915b5050505050815260200160048201805461282c90614c6d565b80601f016020809104026020016040519081016040528092919081815260200182805461285890614c6d565b80156128a55780601f1061287a576101008083540402835291602001916128a5565b820191906000526020600020905b81548152906001019060200180831161288857829003601f168201915b5050505050815260200160058201600580602002604051908101604052809291906000905b8282101561296d5783820180546128e090614c6d565b80601f016020809104026020016040519081016040528092919081815260200182805461290c90614c6d565b80156129595780601f1061292e57610100808354040283529160200191612959565b820191906000526020600020905b81548152906001019060200180831161293c57829003601f168201915b5050505050815260200190600101906128ca565b505050508152602001600a82016005806020026040519081016040528092919082600580156129e6576020028201916000905b82829054906101000a900460ff1660038111156129c0576129bf6145fd565b5b815260200190600101906020826000010492830192600103820291508084116129a05790505b5050505050815250509050919050565b60076000848152602001908152602001600020600083815260200190815260200160002060009054906101000a900460ff16612a67576040517f08c379a0000000000000000000000000000000000000000000000000000000008152600401612a5e90615725565b60405180910390fd5b612a718233611903565b612a7a8361196d565b90612abb576040517f08c379a0000000000000000000000000000000000000000000000000000000008152600401612ab291906141fa565b60405180910390fd5b5060006002600086815260200190815260200160002090506040518060400160405280600981526020017f4e4f545349474e45440000000000000000000000000000000000000000000000815250604051602001612b199190615781565b60405160208183030381529060405280519060200120816007018560058110612b4557612b44614d0a565b5b01604051602001612b569190615830565b6040516020818303038152906040528051906020012014612bac576040517f08c379a0000000000000000000000000000000000000000000000000000000008152600401612ba390615893565b60405180910390fd5b612e7c338260000154836001018054612bc490614c6d565b80601f0160208091040260200160405190810160405280929190818152602001828054612bf090614c6d565b8015612c3d5780601f10612c1257610100808354040283529160200191612c3d565b820191906000526020600020905b815481529060010190602001808311612c2057829003601f168201915b5050505050846002018054612c5190614c6d565b80601f0160208091040260200160405190810160405280929190818152602001828054612c7d90614c6d565b8015612cca5780601f10612c9f57610100808354040283529160200191612cca565b820191906000526020600020905b815481529060010190602001808311612cad57829003601f168201915b5050505050856003018054612cde90614c6d565b80601f0160208091040260200160405190810160405280929190818152602001828054612d0a90614c6d565b8015612d575780601f10612d2c57610100808354040283529160200191612d57565b820191906000526020600020905b815481529060010190602001808311612d3a57829003601f168201915b5050505050866004018054612d6b90614c6d565b80601f0160208091040260200160405190810160405280929190818152602001828054612d9790614c6d565b8015612de45780601f10612db957610100808354040283529160200191612de4565b820191906000526020600020905b815481529060010190602001808311612dc757829003601f168201915b5050505050876005018054612df890614c6d565b80601f0160208091040260200160405190810160405280929190818152602001828054612e2490614c6d565b8015612e715780601f10612e4657610100808354040283529160200191612e71565b820191906000526020600020905b815481529060010190602001808311612e5457829003601f168201915b5050505050896130d5565b15612f2c57600181600c018560058110612e9957612e98614d0a565b5b602091828204019190066101000a81548160ff02191690836003811115612ec357612ec26145fd565b5b021790555081816007018560058110612edf57612ede614d0a565b5b019081612eec91906158f9565b5080600601600081819054906101000a900460ff1680929190612f0e906159cb565b91906101000a81548160ff021916908360ff16021790555050613019565b612f37338684613041565b1561301857600281600c018560058110612f5457612f53614d0a565b5b602091828204019190066101000a81548160ff02191690836003811115612f7e57612f7d6145fd565b5b02179055506040518060400160405280600881526020017f4445434c494e4544000000000000000000000000000000000000000000000000815250816007018560058110612fcf57612fce614d0a565b5b019081612fdc91906158f9565b5080600601600081819054906101000a900460ff1680929190612ffe906159cb565b91906101000a81548160ff021916908360ff160217905550505b5b5050505050565b613029826115ac565b6130328161323d565b61303c8383613339565b505050565b600080613083846040518060400160405280600881526020017f4465636c696e6564000000000000000000000000000000000000000000000000815250611697565b905060006130908261318d565b90508573ffffffffffffffffffffffffffffffffffffffff166130b38286611a43565b73ffffffffffffffffffffffffffffffffffffffff1614925050509392505050565b6000806130e689898989898961314e565b905060006130f38261318d565b90508a73ffffffffffffffffffffffffffffffffffffffff166131168286611a43565b73ffffffffffffffffffffffffffffffffffffffff16149250505098975050505050505050565b6000613149600161341a565b905090565b600086868686868660405160200161316b969594939291906159f4565b6040516020818303038152906040528051906020012090509695505050505050565b6000816040516020016131a09190615abd565b604051602081830303815290604052805190602001209050919050565b6001816000016000828254019250508190555050565b60007f01ffc9a7000000000000000000000000000000000000000000000000000000007bffffffffffffffffffffffffffffffffffffffffffffffffffffffff1916827bffffffffffffffffffffffffffffffffffffffffffffffffffffffff1916149050919050565b61324e81613249613331565b613694565b50565b61325b8282611903565b61332d57600160008084815260200190815260200160002060000160008373ffffffffffffffffffffffffffffffffffffffff1673ffffffffffffffffffffffffffffffffffffffff16815260200190815260200160002060006101000a81548160ff0219169083151502179055506132d2613331565b73ffffffffffffffffffffffffffffffffffffffff168173ffffffffffffffffffffffffffffffffffffffff16837f2f8788117e7eff1d82e926ec794901d17c78024a50270940304540a733656f0d60405160405180910390a45b5050565b600033905090565b6133438282611903565b1561341657600080600084815260200190815260200160002060000160008373ffffffffffffffffffffffffffffffffffffffff1673ffffffffffffffffffffffffffffffffffffffff16815260200190815260200160002060006101000a81548160ff0219169083151502179055506133bb613331565b73ffffffffffffffffffffffffffffffffffffffff168173ffffffffffffffffffffffffffffffffffffffff16837ff6391f5c32d9c69d2a47ea670b442974b53935d1edc7fd64eb21e047a839171b60405160405180910390a45b5050565b600081600001549050919050565b613430613ac4565b6000604051806101200160405280898152602001888152602001878152602001868152602001858152602001848152602001600560ff1681526020016040518060a001604052806040518060400160405280600981526020017f4e4f545349474e4544000000000000000000000000000000000000000000000081525081526020016040518060400160405280600981526020017f4e4f545349474e4544000000000000000000000000000000000000000000000081525081526020016040518060400160405280600981526020017f4e4f545349474e4544000000000000000000000000000000000000000000000081525081526020016040518060400160405280600981526020017f4e4f545349474e4544000000000000000000000000000000000000000000000081525081526020016040518060400160405280600981526020017f4e4f545349474e4544000000000000000000000000000000000000000000000081525081525081526020016040518060a00160405280600060038111156135c0576135bf6145fd565b5b60038111156135d2576135d16145fd565b5b8152602001600060038111156135eb576135ea6145fd565b5b60038111156135fd576135fc6145fd565b5b815260200160006003811115613616576136156145fd565b5b6003811115613628576136276145fd565b5b815260200160006003811115613641576136406145fd565b5b6003811115613653576136526145fd565b5b81526020016000600381111561366c5761366b6145fd565b5b600381111561367e5761367d6145fd565b5b8152508152509050809150509695505050505050565b61369e8282611903565b613715576136ab81613719565b6136b98360001c6020613746565b6040516020016136ca929190615b7b565b6040516020818303038152906040526040517f08c379a000000000000000000000000000000000000000000000000000000000815260040161370c91906141fa565b60405180910390fd5b5050565b606061373f8273ffffffffffffffffffffffffffffffffffffffff16601460ff16613746565b9050919050565b6060600060028360026137599190615bb5565b61376391906152d1565b67ffffffffffffffff81111561377c5761377b613eaa565b5b6040519080825280601f01601f1916602001820160405280156137ae5781602001600182028036833780820191505090505b5090507f3000000000000000000000000000000000000000000000000000000000000000816000815181106137e6576137e5614d0a565b5b60200101907effffffffffffffffffffffffffffffffffffffffffffffffffffffffffffff1916908160001a9053507f78000000000000000000000000000000000000000000000000000000000000008160018151811061384a57613849614d0a565b5b60200101907effffffffffffffffffffffffffffffffffffffffffffffffffffffffffffff1916908160001a9053506000600184600261388a9190615bb5565b61389491906152d1565b90505b6001811115613934577f3031323334353637383961626364656600000000000000000000000000000000600f8616601081106138d6576138d5614d0a565b5b1a60f81b8282815181106138ed576138ec614d0a565b5b60200101907effffffffffffffffffffffffffffffffffffffffffffffffffffffffffffff1916908160001a905350600485901c94508061392d90615bf7565b9050613897565b5060008414613978576040517f08c379a000000000000000000000000000000000000000000000000000000000815260040161396f90615c6c565b60405180910390fd5b8091505092915050565b82600581019282156139bd579160200282015b828111156139bc5782518290816139ac91906158f9565b5091602001919060010190613995565b5b5090506139ca9190613b68565b5090565b826005601f01602090048101928215613a665791602002820160005b83821115613a3757835183826101000a81548160ff02191690836003811115613a1657613a156145fd565b5b021790555092602001926001016020816000010492830192600103026139ea565b8015613a645782816101000a81549060ff0219169055600101602081600001049283019260010302613a37565b505b509050613a739190613b8c565b5090565b828054828255906000526020600020908101928215613ab3579160200282015b82811115613ab2578251825591602001919060010190613a97565b5b509050613ac09190613b8c565b5090565b604051806101200160405280600081526020016060815260200160608152602001606081526020016060815260200160608152602001600060ff168152602001613b0c613ba9565b8152602001613b19613bd0565b81525090565b6040518060e001604052806000815260200160608152602001606081526020016060815260200160608152602001613b55613ba9565b8152602001613b62613bd0565b81525090565b5b80821115613b885760008181613b7f9190613bf2565b50600101613b69565b5090565b5b80821115613ba5576000816000905550600101613b8d565b5090565b6040518060a001604052806005905b6060815260200190600190039081613bb85790505090565b6040518060a00160405280600590602082028036833780820191505090505090565b508054613bfe90614c6d565b6000825580601f10613c105750613c2f565b601f016020900490600052602060002090810190613c2e9190613b8c565b5b50565b6000604051905090565b600080fd5b600080fd5b60007fffffffff0000000000000000000000000000000000000000000000000000000082169050919050565b613c7b81613c46565b8114613c8657600080fd5b50565b600081359050613c9881613c72565b92915050565b600060208284031215613cb457613cb3613c3c565b5b6000613cc284828501613c89565b91505092915050565b60008115159050919050565b613ce081613ccb565b82525050565b6000602082019050613cfb6000830184613cd7565b92915050565b6000819050919050565b613d1481613d01565b8114613d1f57600080fd5b50565b600081359050613d3181613d0b565b92915050565b600060208284031215613d4d57613d4c613c3c565b5b6000613d5b84828501613d22565b91505092915050565b6000819050919050565b613d7781613d64565b8114613d8257600080fd5b50565b600081359050613d9481613d6e565b92915050565b600060208284031215613db057613daf613c3c565b5b6000613dbe84828501613d85565b91505092915050565b613dd081613d64565b82525050565b6000602082019050613deb6000830184613dc7565b92915050565b600073ffffffffffffffffffffffffffffffffffffffff82169050919050565b6000613e1c82613df1565b9050919050565b613e2c81613e11565b8114613e3757600080fd5b50565b600081359050613e4981613e23565b92915050565b60008060408385031215613e6657613e65613c3c565b5b6000613e7485828601613d85565b9250506020613e8585828601613e3a565b9150509250929050565b600080fd5b600080fd5b6000601f19601f8301169050919050565b7f4e487b7100000000000000000000000000000000000000000000000000000000600052604160045260246000fd5b613ee282613e99565b810181811067ffffffffffffffff82111715613f0157613f00613eaa565b5b80604052505050565b6000613f14613c32565b9050613f208282613ed9565b919050565b600067ffffffffffffffff821115613f4057613f3f613eaa565b5b613f4982613e99565b9050602081019050919050565b82818337600083830152505050565b6000613f78613f7384613f25565b613f0a565b905082815260208101848484011115613f9457613f93613e94565b5b613f9f848285613f56565b509392505050565b600082601f830112613fbc57613fbb613e8f565b5b8135613fcc848260208601613f65565b91505092915050565b600060208284031215613feb57613fea613c3c565b5b600082013567ffffffffffffffff81111561400957614008613c41565b5b61401584828501613fa7565b91505092915050565b61402781613d01565b82525050565b6000602082019050614042600083018461401e565b92915050565b6000806040838503121561405f5761405e613c3c565b5b600061406d85828601613d22565b925050602083013567ffffffffffffffff81111561408e5761408d613c41565b5b61409a85828601613fa7565b9150509250929050565b600080600080608085870312156140be576140bd613c3c565b5b600085013567ffffffffffffffff8111156140dc576140db613c41565b5b6140e887828801613fa7565b945050602085013567ffffffffffffffff81111561410957614108613c41565b5b61411587828801613fa7565b935050604085013567ffffffffffffffff81111561413657614135613c41565b5b61414287828801613fa7565b925050606085013567ffffffffffffffff81111561416357614162613c41565b5b61416f87828801613fa7565b91505092959194509250565b600081519050919050565b600082825260208201905092915050565b60005b838110156141b557808201518184015260208101905061419a565b60008484015250505050565b60006141cc8261417b565b6141d68185614186565b93506141e6818560208601614197565b6141ef81613e99565b840191505092915050565b6000602082019050818103600083015261421481846141c1565b905092915050565b600067ffffffffffffffff82111561423757614236613eaa565b5b61424082613e99565b9050602081019050919050565b600061426061425b8461421c565b613f0a565b90508281526020810184848401111561427c5761427b613e94565b5b614287848285613f56565b509392505050565b600082601f8301126142a4576142a3613e8f565b5b81356142b484826020860161424d565b91505092915050565b600080604083850312156142d4576142d3613c3c565b5b60006142e285828601613d85565b925050602083013567ffffffffffffffff81111561430357614302613c41565b5b61430f8582860161428f565b9150509250929050565b61432281613e11565b82525050565b600060208201905061433d6000830184614319565b92915050565b60008060006060848603121561435c5761435b613c3c565b5b600061436a86828701613d22565b935050602084013567ffffffffffffffff81111561438b5761438a613c41565b5b61439786828701613fa7565b925050604084013567ffffffffffffffff8111156143b8576143b7613c41565b5b6143c486828701613fa7565b9150509250925092565b6000602082840312156143e4576143e3613c3c565b5b600082013567ffffffffffffffff81111561440257614401613c41565b5b61440e8482850161428f565b91505092915050565b600060ff82169050919050565b61442d81614417565b82525050565b60006060820190506144486000830186613dc7565b6144556020830185613dc7565b6144626040830184614424565b949350505050565b61447381613d01565b82525050565b600082825260208201905092915050565b60006144958261417b565b61449f8185614479565b93506144af818560208601614197565b6144b881613e99565b840191505092915050565b6144cc81614417565b82525050565b600060059050919050565b600081905092915050565b6000819050919050565b600081519050919050565b600082825260208201905092915050565b6000614519826144f2565b61452381856144fd565b9350614533818560208601614197565b61453c81613e99565b840191505092915050565b6000614553838361450e565b905092915050565b6000602082019050919050565b6000614573826144d2565b61457d81856144dd565b93508360208202850161458f856144e8565b8060005b858110156145cb57848403895281516145ac8582614547565b94506145b78361455b565b925060208a01995050600181019050614593565b50829750879550505050505092915050565b600060059050919050565b600081905092915050565b6000819050919050565b7f4e487b7100000000000000000000000000000000000000000000000000000000600052602160045260246000fd5b6004811061463d5761463c6145fd565b5b50565b600081905061464e8261462c565b919050565b600061465e82614640565b9050919050565b61466e81614653565b82525050565b60006146808383614665565b60208301905092915050565b6000602082019050919050565b6146a2816145dd565b6146ac81846145e8565b92506146b7826145f3565b8060005b838110156146e85781516146cf8782614674565b96506146da8361468c565b9250506001810190506146bb565b505050505050565b60006101a083016000830151614709600086018261446a565b5060208301518482036020860152614721828261448a565b9150506040830151848203604086015261473b828261448a565b91505060608301518482036060860152614755828261448a565b9150506080830151848203608086015261476f828261448a565b91505060a083015184820360a0860152614789828261448a565b91505060c083015161479e60c08601826144c3565b5060e083015184820360e08601526147b68282614568565b9150506101008301516147cd610100860182614699565b508091505092915050565b600060208201905081810360008301526147f281846146f0565b905092915050565b600061016083016000830151614813600086018261446a565b506020830151848203602086015261482b828261448a565b91505060408301518482036040860152614845828261448a565b9150506060830151848203606086015261485f828261448a565b91505060808301518482036080860152614879828261448a565b91505060a083015184820360a08601526148938282614568565b91505060c08301516148a860c0860182614699565b508091505092915050565b600060208201905081810360008301526148cd81846147fa565b905092915050565b600080600080608085870312156148ef576148ee613c3c565b5b60006148fd87828801613d22565b945050602061490e87828801613d22565b935050604061491f87828801613d85565b925050606085013567ffffffffffffffff8111156149405761493f613c41565b5b61494c8782880161428f565b91505092959194509250565b60008060006060848603121561497157614970613c3c565b5b600061497f86828701613e3a565b935050602061499086828701613d22565b925050604084013567ffffffffffffffff8111156149b1576149b0613c41565b5b6149bd8682870161428f565b9150509250925092565b600080600080600080600080610100898b0312156149e8576149e7613c3c565b5b60006149f68b828c01613e3a565b9850506020614a078b828c01613d22565b975050604089013567ffffffffffffffff811115614a2857614a27613c41565b5b614a348b828c01613fa7565b965050606089013567ffffffffffffffff811115614a5557614a54613c41565b5b614a618b828c01613fa7565b955050608089013567ffffffffffffffff811115614a8257614a81613c41565b5b614a8e8b828c01613fa7565b94505060a089013567ffffffffffffffff811115614aaf57614aae613c41565b5b614abb8b828c01613fa7565b93505060c089013567ffffffffffffffff811115614adc57614adb613c41565b5b614ae88b828c01613fa7565b92505060e089013567ffffffffffffffff811115614b0957614b08613c41565b5b614b158b828c0161428f565b9150509295985092959890939650565b60008060008060008060c08789031215614b4257614b41613c3c565b5b6000614b5089828a01613d22565b965050602087013567ffffffffffffffff811115614b7157614b70613c41565b5b614b7d89828a01613fa7565b955050604087013567ffffffffffffffff811115614b9e57614b9d613c41565b5b614baa89828a01613fa7565b945050606087013567ffffffffffffffff811115614bcb57614bca613c41565b5b614bd789828a01613fa7565b935050608087013567ffffffffffffffff811115614bf857614bf7613c41565b5b614c0489828a01613fa7565b92505060a087013567ffffffffffffffff811115614c2557614c24613c41565b5b614c3189828a01613fa7565b9150509295509295509295565b7f4e487b7100000000000000000000000000000000000000000000000000000000600052602260045260246000fd5b60006002820490506001821680614c8557607f821691505b602082108103614c9857614c97614c3e565b5b50919050565b7f4e6f20456e6f756768205369676e617465757200000000000000000000000000600082015250565b6000614cd4601383614186565b9150614cdf82614c9e565b602082019050919050565b60006020820190508181036000830152614d0381614cc7565b9050919050565b7f4e487b7100000000000000000000000000000000000000000000000000000000600052603260045260246000fd5b7f54686520476f7665726e6d656e7420686173206465636c696e65640000000000600082015250565b6000614d6f601b83614186565b9150614d7a82614d39565b602082019050919050565b60006020820190508181036000830152614d9e81614d62565b9050919050565b7f54686520456d706c6f79657220686173206465636c696e656400000000000000600082015250565b6000614ddb601983614186565b9150614de682614da5565b602082019050919050565b60006020820190508181036000830152614e0a81614dce565b9050919050565b7f54686520506f6c69636520686173206465636c696e6564000000000000000000600082015250565b6000614e47601783614186565b9150614e5282614e11565b602082019050919050565b60006020820190508181036000830152614e7681614e3a565b9050919050565b7f54686520446a6f6e6461726d20686173206465636c696e656400000000000000600082015250565b6000614eb3601983614186565b9150614ebe82614e7d565b602082019050919050565b60006020820190508181036000830152614ee281614ea6565b9050919050565b7f54686520546178657320686173206465636c696e656400000000000000000000600082015250565b6000614f1f601683614186565b9150614f2a82614ee9565b602082019050919050565b60006020820190508181036000830152614f4e81614f12565b9050919050565b60008190508160005260206000209050919050565b60006020601f8301049050919050565b600082821b905092915050565b600060088302614fb77fffffffffffffffffffffffffffffffffffffffffffffffffffffffffffffffff82614f7a565b614fc18683614f7a565b95508019841693508086168417925050509392505050565b6000819050919050565b6000614ffe614ff9614ff484613d01565b614fd9565b613d01565b9050919050565b6000819050919050565b61501883614fe3565b61502c61502482615005565b848454614f87565b825550505050565b600090565b615041615034565b61504c81848461500f565b505050565b5b8181101561507057615065600082615039565b600181019050615052565b5050565b601f8211156150b55761508681614f55565b61508f84614f6a565b8101602085101561509e578190505b6150b26150aa85614f6a565b830182615051565b50505b505050565b600082821c905092915050565b60006150d8600019846008026150ba565b1980831691505092915050565b60006150f183836150c7565b9150826002028217905092915050565b61510a8261417b565b67ffffffffffffffff81111561512357615122613eaa565b5b61512d8254614c6d565b615138828285615074565b600060209050601f83116001811461516b5760008415615159578287015190505b61516385826150e5565b8655506151cb565b601f19841661517986614f55565b60005b828110156151a15784890151825560018201915060208501945060208101905061517c565b868310156151be57848901516151ba601f8916826150c7565b8355505b6001600288020188555050505b505050505050565b600081905092915050565b60006151e98261417b565b6151f381856151d3565b9350615203818560208601614197565b80840191505092915050565b600061521b82846151de565b915081905092915050565b7f4e487b7100000000000000000000000000000000000000000000000000000000600052601160045260246000fd5b600061526082613d01565b915061526b83613d01565b925082820390508181111561528357615282615226565b5b92915050565b600061529482613d01565b91507fffffffffffffffffffffffffffffffffffffffffffffffffffffffffffffffff82036152c6576152c5615226565b5b600182019050919050565b60006152dc82613d01565b91506152e783613d01565b92508282019050808211156152ff576152fe615226565b5b92915050565b7f416363657373436f6e74726f6c3a2063616e206f6e6c792072656e6f756e636560008201527f20726f6c657320666f722073656c660000000000000000000000000000000000602082015250565b6000615361602f83614186565b915061536c82615305565b604082019050919050565b6000602082019050818103600083015261539081615354565b9050919050565b6000819050919050565b6153b26153ad82613d01565b615397565b82525050565b60006153c482856153a1565b6020820191506153d482846151de565b91508190509392505050565b7f4f6e6c7920656d706c6f796572732063616e206164642061206e65772072656760008201527f697374726174696f6e2063657274696669636174652e00000000000000000000602082015250565b600061543c603683614186565b9150615447826153e0565b604082019050919050565b6000602082019050818103600083015261546b8161542f565b9050919050565b7f5468652056656869636c65204964656e74696669636174696f6e204e756d626560008201527f7220616c72656164792072656769737472656400000000000000000000000000602082015250565b60006154ce603383614186565b91506154d982615472565b604082019050919050565b600060208201905081810360008301526154fd816154c1565b9050919050565b7f5468652056656869636c6520526567697374726174696f6e20506c617465732060008201527f616c726561647920726567697374726564000000000000000000000000000000602082015250565b6000615560603183614186565b915061556b82615504565b604082019050919050565b6000602082019050818103600083015261558f81615553565b9050919050565b60006080820190506155ab6000830187613dc7565b6155b86020830186614424565b6155c56040830185613dc7565b6155d26060830184613dc7565b95945050505050565b7f4f6e6c79204f776e65722063616e207472616e7366657220526567697374657260008201527f4365727469666963617465000000000000000000000000000000000000000000602082015250565b6000615637602b83614186565b9150615642826155db565b604082019050919050565b600060208201905081810360008301526156668161562a565b9050919050565b7f696e76616c6964207369676e6174757265206c656e6774680000000000000000600082015250565b60006156a3601883614186565b91506156ae8261566d565b602082019050919050565b600060208201905081810360008301526156d281615696565b9050919050565b7f5468697320726f6c65206973206e6f7420726567697374726564000000000000600082015250565b600061570f601a83614186565b915061571a826156d9565b602082019050919050565b6000602082019050818103600083015261573e81615702565b9050919050565b600081905092915050565b600061575b826144f2565b6157658185615745565b9350615775818560208601614197565b80840191505092915050565b600061578d8284615750565b915081905092915050565b60008190508160005260206000209050919050565b600081546157ba81614c6d565b6157c48186615745565b945060018216600081146157df57600181146157f457615827565b60ff1983168652811515820286019350615827565b6157fd85615798565b60005b8381101561581f57815481890152600182019150602081019050615800565b838801955050505b50505092915050565b600061583c82846157ad565b915081905092915050565b7f416c7265616479205369676e6564000000000000000000000000000000000000600082015250565b600061587d600e83614186565b915061588882615847565b602082019050919050565b600060208201905081810360008301526158ac81615870565b9050919050565b601f8211156158f4576158c581615798565b6158ce84614f6a565b810160208510156158dd578190505b6158f16158e985614f6a565b830182615051565b50505b505050565b615902826144f2565b67ffffffffffffffff81111561591b5761591a613eaa565b5b6159258254614c6d565b6159308282856158b3565b600060209050601f8311600181146159635760008415615951578287015190505b61595b85826150e5565b8655506159c3565b601f19841661597186615798565b60005b8281101561599957848901518255600182019150602085019450602081019050615974565b868310156159b657848901516159b2601f8916826150c7565b8355505b6001600288020188555050505b505050505050565b60006159d682614417565b9150600082036159e9576159e8615226565b5b600182039050919050565b6000615a0082896153a1565b602082019150615a1082886151de565b9150615a1c82876151de565b9150615a2882866151de565b9150615a3482856151de565b9150615a4082846151de565b9150819050979650505050505050565b7f19457468657265756d205369676e6564204d6573736167653a0a333200000000600082015250565b6000615a86601c836151d3565b9150615a9182615a50565b601c82019050919050565b6000819050919050565b615ab7615ab282613d64565b615a9c565b82525050565b6000615ac882615a79565b9150615ad48284615aa6565b60208201915081905092915050565b7f416363657373436f6e74726f6c3a206163636f756e7420000000000000000000600082015250565b6000615b196017836151d3565b9150615b2482615ae3565b601782019050919050565b7f206973206d697373696e6720726f6c6520000000000000000000000000000000600082015250565b6000615b656011836151d3565b9150615b7082615b2f565b601182019050919050565b6000615b8682615b0c565b9150615b9282856151de565b9150615b9d82615b58565b9150615ba982846151de565b91508190509392505050565b6000615bc082613d01565b9150615bcb83613d01565b9250828202615bd981613d01565b91508282048414831517615bf057615bef615226565b5b5092915050565b6000615c0282613d01565b915060008203615c1557615c14615226565b5b600182039050919050565b7f537472696e67733a20686578206c656e67746820696e73756666696369656e74600082015250565b6000615c56602083614186565b9150615c6182615c20565b602082019050919050565b60006020820190508181036000830152615c8581615c49565b905091905056fea2646970667358221220823333314b8b8bf4ca07f04b6edbb538ca95e0de32c33fba2452347706d2738064736f6c63430008120033",
  "linkReferences": {},
  "deployedLinkReferences": {}
}