{
  "_format": "hh-sol-artifact-1",
  "contractName": "RegisterCertificates",
  "sourceName": "contracts/RegisterCertificates.sol",
  "abi": [
    {
      "inputs": [
        {
          "internalType": "address",
          "name": "verifySignatureAddress",
          "type": "address"
        }
      ],
      "stateMutability": "nonpayable",
      "type": "constructor"
    },
    {
      "anonymous": false,
      "inputs": [
        {
          "indexed": true,
          "internalType": "bytes32",
          "name": "role",
          "type": "bytes32"
        },
        {
          "indexed": true,
          "internalType": "bytes32",
          "name": "previousAdminRole",
          "type": "bytes32"
        },
        {
          "indexed": true,
          "internalType": "bytes32",
          "name": "newAdminRole",
          "type": "bytes32"
        }
      ],
      "name": "RoleAdminChanged",
      "type": "event"
    },
    {
      "anonymous": false,
      "inputs": [
        {
          "indexed": true,
          "internalType": "bytes32",
          "name": "role",
          "type": "bytes32"
        },
        {
          "indexed": true,
          "internalType": "address",
          "name": "account",
          "type": "address"
        },
        {
          "indexed": true,
          "internalType": "address",
          "name": "sender",
          "type": "address"
        }
      ],
      "name": "RoleGranted",
      "type": "event"
    },
    {
      "anonymous": false,
      "inputs": [
        {
          "indexed": true,
          "internalType": "bytes32",
          "name": "role",
          "type": "bytes32"
        },
        {
          "indexed": true,
          "internalType": "address",
          "name": "account",
          "type": "address"
        },
        {
          "indexed": true,
          "internalType": "address",
          "name": "sender",
          "type": "address"
        }
      ],
      "name": "RoleRevoked",
      "type": "event"
    },
    {
      "anonymous": false,
      "inputs": [
        {
          "indexed": true,
          "internalType": "uint256",
          "name": "registerCertificateId",
          "type": "uint256"
        },
        {
          "indexed": true,
          "internalType": "string",
          "name": "oldOwner",
          "type": "string"
        },
        {
          "indexed": true,
          "internalType": "string",
          "name": "newOwner",
          "type": "string"
        }
      ],
      "name": "Submit",
      "type": "event"
    },
    {
      "anonymous": false,
      "inputs": [
        {
          "indexed": true,
          "internalType": "uint256",
          "name": "registerCertificateId",
          "type": "uint256"
        }
      ],
      "name": "Transfer",
      "type": "event"
    },
    {
      "inputs": [],
      "name": "DEFAULT_ADMIN_ROLE",
      "outputs": [
        {
          "internalType": "bytes32",
          "name": "",
          "type": "bytes32"
        }
      ],
      "stateMutability": "view",
      "type": "function"
    },
    {
      "inputs": [
        {
          "internalType": "uint256",
          "name": "id",
          "type": "uint256"
        },
        {
          "internalType": "uint256",
          "name": "idrole",
          "type": "uint256"
        },
        {
          "internalType": "bytes32",
          "name": "role",
          "type": "bytes32"
        },
        {
          "internalType": "bytes",
          "name": "signature",
          "type": "bytes"
        }
      ],
      "name": "Siging",
      "outputs": [],
      "stateMutability": "nonpayable",
      "type": "function"
    },
    {
      "inputs": [
        {
          "internalType": "uint256",
          "name": "id",
          "type": "uint256"
        }
      ],
      "name": "SubmitRegisterCertificate",
      "outputs": [],
      "stateMutability": "nonpayable",
      "type": "function"
    },
    {
      "inputs": [
        {
          "internalType": "uint256",
          "name": "",
          "type": "uint256"
        }
      ],
      "name": "_idToTemporaryRegisterCertificates",
      "outputs": [
        {
          "internalType": "uint256",
          "name": "registerCertificateId",
          "type": "uint256"
        },
        {
          "internalType": "address",
          "name": "employer",
          "type": "address"
        },
        {
          "internalType": "string",
          "name": "vin",
          "type": "string"
        },
        {
          "internalType": "string",
          "name": "vrp",
          "type": "string"
        },
        {
          "internalType": "string",
          "name": "uri",
          "type": "string"
        },
        {
          "internalType": "string",
          "name": "oldOwner",
          "type": "string"
        },
        {
          "internalType": "string",
          "name": "newOwner",
          "type": "string"
        },
        {
          "internalType": "address",
          "name": "oldState",
          "type": "address"
        },
        {
          "internalType": "address",
          "name": "newState",
          "type": "address"
        },
        {
          "internalType": "uint8",
          "name": "requireSigners",
          "type": "uint8"
        }
      ],
      "stateMutability": "view",
      "type": "function"
    },
    {
      "inputs": [
        {
          "internalType": "address",
          "name": "employer",
          "type": "address"
        }
      ],
      "name": "addEmployer",
      "outputs": [],
      "stateMutability": "nonpayable",
      "type": "function"
    },
    {
      "inputs": [],
      "name": "currentId",
      "outputs": [
        {
          "internalType": "uint256",
          "name": "",
          "type": "uint256"
        }
      ],
      "stateMutability": "view",
      "type": "function"
    },
    {
      "inputs": [
        {
          "internalType": "address",
          "name": "employer",
          "type": "address"
        }
      ],
      "name": "deleteEmployer",
      "outputs": [],
      "stateMutability": "nonpayable",
      "type": "function"
    },
    {
      "inputs": [],
      "name": "getCurrentcertificateId",
      "outputs": [
        {
          "internalType": "uint256",
          "name": "",
          "type": "uint256"
        }
      ],
      "stateMutability": "view",
      "type": "function"
    },
    {
      "inputs": [
        {
          "internalType": "uint256",
          "name": "id",
          "type": "uint256"
        }
      ],
      "name": "getRegisterCertificates",
      "outputs": [
        {
          "components": [
            {
              "internalType": "uint256",
              "name": "registerCertificateId",
              "type": "uint256"
            },
            {
              "internalType": "string",
              "name": "vin",
              "type": "string"
            },
            {
              "internalType": "string",
              "name": "vrp",
              "type": "string"
            },
            {
              "internalType": "string",
              "name": "uri",
              "type": "string"
            },
            {
              "internalType": "string",
              "name": "owner",
              "type": "string"
            },
            {
              "internalType": "address",
              "name": "state",
              "type": "address"
            },
            {
              "internalType": "bytes[5]",
              "name": "signers",
              "type": "bytes[5]"
            },
            {
              "internalType": "enum RegisterCertificates.Status[5]",
              "name": "status",
              "type": "uint8[5]"
            }
          ],
          "internalType": "struct RegisterCertificates.RegisterCertificate",
          "name": "",
          "type": "tuple"
        }
      ],
      "stateMutability": "view",
      "type": "function"
    },
    {
      "inputs": [
        {
          "internalType": "bytes32",
          "name": "role",
          "type": "bytes32"
        }
      ],
      "name": "getRoleAdmin",
      "outputs": [
        {
          "internalType": "bytes32",
          "name": "",
          "type": "bytes32"
        }
      ],
      "stateMutability": "view",
      "type": "function"
    },
    {
      "inputs": [
        {
          "internalType": "uint256",
          "name": "id",
          "type": "uint256"
        }
      ],
      "name": "getTemporaryRegisterCertificates",
      "outputs": [
        {
          "components": [
            {
              "internalType": "uint256",
              "name": "registerCertificateId",
              "type": "uint256"
            },
            {
              "internalType": "address",
              "name": "employer",
              "type": "address"
            },
            {
              "internalType": "string",
              "name": "vin",
              "type": "string"
            },
            {
              "internalType": "string",
              "name": "vrp",
              "type": "string"
            },
            {
              "internalType": "string",
              "name": "uri",
              "type": "string"
            },
            {
              "internalType": "string",
              "name": "oldOwner",
              "type": "string"
            },
            {
              "internalType": "string",
              "name": "newOwner",
              "type": "string"
            },
            {
              "internalType": "address",
              "name": "oldState",
              "type": "address"
            },
            {
              "internalType": "address",
              "name": "newState",
              "type": "address"
            },
            {
              "internalType": "uint8",
              "name": "requireSigners",
              "type": "uint8"
            },
            {
              "internalType": "bytes[5]",
              "name": "signers",
              "type": "bytes[5]"
            },
            {
              "internalType": "enum RegisterCertificates.Status[5]",
              "name": "status",
              "type": "uint8[5]"
            }
          ],
          "internalType": "struct RegisterCertificates.TemporaryRegisterCertificate",
          "name": "",
          "type": "tuple"
        }
      ],
      "stateMutability": "view",
      "type": "function"
    },
    {
      "inputs": [
        {
          "internalType": "bytes32",
          "name": "role",
          "type": "bytes32"
        },
        {
          "internalType": "address",
          "name": "account",
          "type": "address"
        }
      ],
      "name": "grantRole",
      "outputs": [],
      "stateMutability": "nonpayable",
      "type": "function"
    },
    {
      "inputs": [
        {
          "internalType": "bytes32",
          "name": "role",
          "type": "bytes32"
        },
        {
          "internalType": "address",
          "name": "account",
          "type": "address"
        }
      ],
      "name": "hasRole",
      "outputs": [
        {
          "internalType": "bool",
          "name": "",
          "type": "bool"
        }
      ],
      "stateMutability": "view",
      "type": "function"
    },
    {
      "inputs": [
        {
          "internalType": "address",
          "name": "state",
          "type": "address"
        },
        {
          "internalType": "string",
          "name": "vin",
          "type": "string"
        },
        {
          "internalType": "string",
          "name": "vrp",
          "type": "string"
        },
        {
          "internalType": "string",
          "name": "uri",
          "type": "string"
        },
        {
          "internalType": "string",
          "name": "owner",
          "type": "string"
        }
      ],
      "name": "mintRegisterCertificate",
      "outputs": [],
      "stateMutability": "nonpayable",
      "type": "function"
    },
    {
      "inputs": [
        {
          "internalType": "bytes32",
          "name": "role",
          "type": "bytes32"
        },
        {
          "internalType": "address",
          "name": "account",
          "type": "address"
        }
      ],
      "name": "renounceRole",
      "outputs": [],
      "stateMutability": "nonpayable",
      "type": "function"
    },
    {
      "inputs": [
        {
          "internalType": "bytes32",
          "name": "role",
          "type": "bytes32"
        },
        {
          "internalType": "address",
          "name": "account",
          "type": "address"
        }
      ],
      "name": "revokeRole",
      "outputs": [],
      "stateMutability": "nonpayable",
      "type": "function"
    },
    {
      "inputs": [
        {
          "internalType": "bytes4",
          "name": "interfaceId",
          "type": "bytes4"
        }
      ],
      "name": "supportsInterface",
      "outputs": [
        {
          "internalType": "bool",
          "name": "",
          "type": "bool"
        }
      ],
      "stateMutability": "view",
      "type": "function"
    },
    {
      "inputs": [
        {
          "internalType": "uint256",
          "name": "certificatId",
          "type": "uint256"
        },
        {
          "internalType": "string",
          "name": "newOwner",
          "type": "string"
        },
        {
          "internalType": "address",
          "name": "newState",
          "type": "address"
        }
      ],
      "name": "transfer",
      "outputs": [],
      "stateMutability": "nonpayable",
      "type": "function"
    }
  ],
  "bytecode": "0x60806040523480156200001157600080fd5b50604051620062b4380380620062b4833981810160405281019062000037919062000450565b80600260006101000a81548173ffffffffffffffffffffffffffffffffffffffff021916908373ffffffffffffffffffffffffffffffffffffffff1602179055506200008d6000801b336200028360201b60201c565b60016000815480929190620000a290620004bb565b919050555060016008600080815260200190815260200160002060007f454d504c4f594552000000000000000000000000000000000000000000000000815260200190815260200160002060006101000a81548160ff0219169083151502179055506001600860006001815260200190815260200160002060007f5354415445530000000000000000000000000000000000000000000000000000815260200190815260200160002060006101000a81548160ff0219169083151502179055506001600860006002815260200190815260200160002060007f504f4c4943450000000000000000000000000000000000000000000000000000815260200190815260200160002060006101000a81548160ff0219169083151502179055506001600860006003815260200190815260200160002060007f47454e4441524d45524945000000000000000000000000000000000000000000815260200190815260200160002060006101000a81548160ff0219169083151502179055506001600860006004815260200190815260200160002060007f5441580000000000000000000000000000000000000000000000000000000000815260200190815260200160002060006101000a81548160ff0219169083151502179055505062000508565b6200029582826200037460201b60201c565b6200037057600160008084815260200190815260200160002060000160008373ffffffffffffffffffffffffffffffffffffffff1673ffffffffffffffffffffffffffffffffffffffff16815260200190815260200160002060006101000a81548160ff02191690831515021790555062000315620003de60201b60201c565b73ffffffffffffffffffffffffffffffffffffffff168173ffffffffffffffffffffffffffffffffffffffff16837f2f8788117e7eff1d82e926ec794901d17c78024a50270940304540a733656f0d60405160405180910390a45b5050565b600080600084815260200190815260200160002060000160008373ffffffffffffffffffffffffffffffffffffffff1673ffffffffffffffffffffffffffffffffffffffff16815260200190815260200160002060009054906101000a900460ff16905092915050565b600033905090565b600080fd5b600073ffffffffffffffffffffffffffffffffffffffff82169050919050565b60006200041882620003eb565b9050919050565b6200042a816200040b565b81146200043657600080fd5b50565b6000815190506200044a816200041f565b92915050565b600060208284031215620004695762000468620003e6565b5b6000620004798482850162000439565b91505092915050565b7f4e487b7100000000000000000000000000000000000000000000000000000000600052601160045260246000fd5b6000819050919050565b6000620004c882620004b1565b91507fffffffffffffffffffffffffffffffffffffffffffffffffffffffffffffffff8203620004fd57620004fc62000482565b5b600182019050919050565b615d9c80620005186000396000f3fe608060405234801561001057600080fd5b50600436106101165760003560e01c806368b54919116100a2578063c1a4098b11610071578063c1a4098b146102f8578063d547741f14610314578063de26a51b14610330578063e00dd16114610360578063e70aa3f41461037e57610116565b806368b549191461027257806391d148541461028e578063a217fddf146102be578063b3a2decb146102dc57610116565b80631ca32733116100e95780631ca32733146101be578063248a9ca3146101da5780632f2ff15d1461020a57806336568abe146102265780634613b67e1461024257610116565b806301ffc9a71461011b578063161ac75d1461014b57806317b5bbcf146101845780631b925c05146101a2575b600080fd5b61013560048036038101906101309190613e57565b61039a565b6040516101429190613e9f565b60405180910390f35b61016560048036038101906101609190613ef0565b610414565b60405161017b9a99989796959493929190614019565b60405180910390f35b61018c61077d565b60405161019991906140d8565b60405180910390f35b6101bc60048036038101906101b79190613ef0565b610787565b005b6101d860048036038101906101d39190614254565b611690565b005b6101f460048036038101906101ef9190614375565b6118c2565b60405161020191906143b1565b60405180910390f35b610224600480360381019061021f91906143cc565b6118e1565b005b610240600480360381019061023b91906143cc565b611902565b005b61025c60048036038101906102579190613ef0565b611985565b60405161026991906147c8565b60405180910390f35b61028c600480360381019061028791906147ea565b611ef7565b005b6102a860048036038101906102a391906143cc565b611ff8565b6040516102b59190613e9f565b60405180910390f35b6102c6612062565b6040516102d391906143b1565b60405180910390f35b6102f660048036038101906102f19190614817565b612069565b005b610312600480360381019061030d9190614927565b6125d8565b005b61032e600480360381019061032991906143cc565b612b5f565b005b61034a60048036038101906103459190613ef0565b612b80565b6040516103579190614a76565b60405180910390f35b610368612f97565b60405161037591906140d8565b60405180910390f35b610398600480360381019061039391906147ea565b612fa1565b005b60007f7965db0b000000000000000000000000000000000000000000000000000000007bffffffffffffffffffffffffffffffffffffffffffffffffffffffff1916827bffffffffffffffffffffffffffffffffffffffffffffffffffffffff1916148061040d575061040c826130a2565b5b9050919050565b60036020528060005260406000206000915090508060000154908060010160009054906101000a900473ffffffffffffffffffffffffffffffffffffffff169080600201805461046390614ac7565b80601f016020809104026020016040519081016040528092919081815260200182805461048f90614ac7565b80156104dc5780601f106104b1576101008083540402835291602001916104dc565b820191906000526020600020905b8154815290600101906020018083116104bf57829003601f168201915b5050505050908060030180546104f190614ac7565b80601f016020809104026020016040519081016040528092919081815260200182805461051d90614ac7565b801561056a5780601f1061053f5761010080835404028352916020019161056a565b820191906000526020600020905b81548152906001019060200180831161054d57829003601f168201915b50505050509080600401805461057f90614ac7565b80601f01602080910402602001604051908101604052809291908181526020018280546105ab90614ac7565b80156105f85780601f106105cd576101008083540402835291602001916105f8565b820191906000526020600020905b8154815290600101906020018083116105db57829003601f168201915b50505050509080600501805461060d90614ac7565b80601f016020809104026020016040519081016040528092919081815260200182805461063990614ac7565b80156106865780601f1061065b57610100808354040283529160200191610686565b820191906000526020600020905b81548152906001019060200180831161066957829003601f168201915b50505050509080600601805461069b90614ac7565b80601f01602080910402602001604051908101604052809291908181526020018280546106c790614ac7565b80156107145780601f106106e957610100808354040283529160200191610714565b820191906000526020600020905b8154815290600101906020018083116106f757829003601f168201915b5050505050908060070160009054906101000a900473ffffffffffffffffffffffffffffffffffffffff16908060080160009054906101000a900473ffffffffffffffffffffffffffffffffffffffff16908060080160149054906101000a900460ff1690508a565b6000600154905090565b60006003600083815260200190815260200160002060405180610180016040529081600082015481526020016001820160009054906101000a900473ffffffffffffffffffffffffffffffffffffffff1673ffffffffffffffffffffffffffffffffffffffff1673ffffffffffffffffffffffffffffffffffffffff16815260200160028201805461081890614ac7565b80601f016020809104026020016040519081016040528092919081815260200182805461084490614ac7565b80156108915780601f1061086657610100808354040283529160200191610891565b820191906000526020600020905b81548152906001019060200180831161087457829003601f168201915b505050505081526020016003820180546108aa90614ac7565b80601f01602080910402602001604051908101604052809291908181526020018280546108d690614ac7565b80156109235780601f106108f857610100808354040283529160200191610923565b820191906000526020600020905b81548152906001019060200180831161090657829003601f168201915b5050505050815260200160048201805461093c90614ac7565b80601f016020809104026020016040519081016040528092919081815260200182805461096890614ac7565b80156109b55780601f1061098a576101008083540402835291602001916109b5565b820191906000526020600020905b81548152906001019060200180831161099857829003601f168201915b505050505081526020016005820180546109ce90614ac7565b80601f01602080910402602001604051908101604052809291908181526020018280546109fa90614ac7565b8015610a475780601f10610a1c57610100808354040283529160200191610a47565b820191906000526020600020905b815481529060010190602001808311610a2a57829003601f168201915b50505050508152602001600682018054610a6090614ac7565b80601f0160208091040260200160405190810160405280929190818152602001828054610a8c90614ac7565b8015610ad95780601f10610aae57610100808354040283529160200191610ad9565b820191906000526020600020905b815481529060010190602001808311610abc57829003601f168201915b505050505081526020016007820160009054906101000a900473ffffffffffffffffffffffffffffffffffffffff1673ffffffffffffffffffffffffffffffffffffffff1673ffffffffffffffffffffffffffffffffffffffff1681526020016008820160009054906101000a900473ffffffffffffffffffffffffffffffffffffffff1673ffffffffffffffffffffffffffffffffffffffff1673ffffffffffffffffffffffffffffffffffffffff1681526020016008820160149054906101000a900460ff1660ff1660ff16815260200160098201600580602002604051908101604052809291906000905b82821015610c6a578382018054610bdd90614ac7565b80601f0160208091040260200160405190810160405280929190818152602001828054610c0990614ac7565b8015610c565780601f10610c2b57610100808354040283529160200191610c56565b820191906000526020600020905b815481529060010190602001808311610c3957829003601f168201915b505050505081526020019060010190610bc7565b505050508152602001600e8201600580602002604051908101604052809291908260058015610ce3576020028201916000905b82829054906101000a900460ff166003811115610cbd57610cbc6145ae565b5b81526020019060010190602082600001049283019260010382029150808411610c9d5790505b5050505050815250509050600081610120015160ff16905060008114610d3e576040517f08c379a0000000000000000000000000000000000000000000000000000000008152600401610d3590614b44565b60405180910390fd5b60016003811115610d5257610d516145ae565b5b826101600151600060058110610d6b57610d6a614b64565b5b60200201516003811115610d8257610d816145ae565b5b14610dc2576040517f08c379a0000000000000000000000000000000000000000000000000000000008152600401610db990614bdf565b60405180910390fd5b60016003811115610dd657610dd56145ae565b5b826101600151600160058110610def57610dee614b64565b5b60200201516003811115610e0657610e056145ae565b5b14610e46576040517f08c379a0000000000000000000000000000000000000000000000000000000008152600401610e3d90614c4b565b60405180910390fd5b60016003811115610e5a57610e596145ae565b5b826101600151600260058110610e7357610e72614b64565b5b60200201516003811115610e8a57610e896145ae565b5b14610eca576040517f08c379a0000000000000000000000000000000000000000000000000000000008152600401610ec190614cb7565b60405180910390fd5b60016003811115610ede57610edd6145ae565b5b826101600151600360058110610ef757610ef6614b64565b5b60200201516003811115610f0e57610f0d6145ae565b5b14610f4e576040517f08c379a0000000000000000000000000000000000000000000000000000000008152600401610f4590614d23565b60405180910390fd5b60016003811115610f6257610f616145ae565b5b826101600151600460058110610f7b57610f7a614b64565b5b60200201516003811115610f9257610f916145ae565b5b14610fd2576040517f08c379a0000000000000000000000000000000000000000000000000000000008152600401610fc990614d8f565b60405180910390fd5b6000604051806101000160405280846000015181526020018460400151815260200184606001518152602001846080015181526020018460c00151815260200184610100015173ffffffffffffffffffffffffffffffffffffffff16815260200184610140015181526020018461016001518152509050806004600086815260200190815260200160002060008201518160000155602082015181600101908161107c9190614f5b565b5060408201518160020190816110929190614f5b565b5060608201518160030190816110a89190614f5b565b5060808201518160040190816110be9190614f5b565b5060a08201518160050160006101000a81548173ffffffffffffffffffffffffffffffffffffffff021916908373ffffffffffffffffffffffffffffffffffffffff16021790555060c08201518160060190600561111d929190613a6c565b5060e082015181600b01906005611135929190613ab8565b50905050600060058460a0015160405161114f9190615069565b908152602001604051809103902080549050905060018111156112d557600060018261117b91906150af565b67ffffffffffffffff81111561119457611193614129565b5b6040519080825280602002602001820160405280156111c25781602001602082028036833780820191505090505b5090506000805b83811015611296578760058860a001516040516111e69190615069565b9081526020016040518091039020828154811061120657611205614b64565b5b9060005260206000200154146112835760058760a0015160405161122a9190615069565b9081526020016040518091039020818154811061124a57611249614b64565b5b906000526020600020015483838151811061126857611267614b64565b5b602002602001018181525050818061127f906150e3565b9250505b808061128e906150e3565b9150506111c9565b508160058760a001516040516112ac9190615069565b908152602001604051809103902090805190602001906112cd929190613b61565b505050611356565b600067ffffffffffffffff8111156112f0576112ef614129565b5b60405190808252806020026020018201604052801561131e5781602001602082028036833780820191505090505b5060058560a001516040516113339190615069565b90815260200160405180910390209080519060200190611354929190613b61565b505b600060058560c0015160405161136c9190615069565b9081526020016040518091039020805490509050600060018261138f919061512b565b67ffffffffffffffff8111156113a8576113a7614129565b5b6040519080825280602002602001820160405280156113d65781602001602082028036833780820191505090505b50905060005b828110156114555760058760c001516040516113f89190615069565b9081526020016040518091039020818154811061141857611417614b64565b5b906000526020600020015482828151811061143657611435614b64565b5b602002602001018181525050808061144d906150e3565b9150506113dc565b50856000015181838151811061146e5761146d614b64565b5b6020026020010181815250508060058760c0015160405161148f9190615069565b908152602001604051809103902090805190602001906114b0929190613b61565b508560000151600687604001516040516114ca9190615069565b9081526020016040518091039020819055508560000151600787606001516040516114f59190615069565b90815260200160405180910390208190555060036000876000015181526020019081526020016000206000808201600090556001820160006101000a81549073ffffffffffffffffffffffffffffffffffffffff021916905560028201600061155e9190613bae565b60038201600061156e9190613bae565b60048201600061157e9190613bae565b60058201600061158e9190613bae565b60068201600061159e9190613bae565b6007820160006101000a81549073ffffffffffffffffffffffffffffffffffffffff02191690556008820160006101000a81549073ffffffffffffffffffffffffffffffffffffffff02191690556008820160146101000a81549060ff02191690556009820160006116109190613bee565b600e820160006116209190613c01565b50508560c001516040516116349190615069565b60405180910390208660a0015160405161164e9190615069565b604051809103902087600001517fca4a99f6e8b89e970d8586b120d211e48f85272f8925990687b53373ec0205de60405160405180910390a450505050505050565b6116ba7f454d504c4f59455200000000000000000000000000000000000000000000000033611ff8565b6116f9576040517f08c379a00000000000000000000000000000000000000000000000000000000081526004016116f0906151d1565b60405180910390fd5b60011515600960008773ffffffffffffffffffffffffffffffffffffffff1673ffffffffffffffffffffffffffffffffffffffff16815260200190815260200160002060003373ffffffffffffffffffffffffffffffffffffffff1673ffffffffffffffffffffffffffffffffffffffff16815260200190815260200160002060009054906101000a900460ff161515146117c9576040517f08c379a00000000000000000000000000000000000000000000000000000000081526004016117c09061523d565b60405180910390fd5b60006006856040516117db9190615069565b9081526020016040518091039020541461182a576040517f08c379a0000000000000000000000000000000000000000000000000000000008152600401611821906152cf565b60405180910390fd5b600060078460405161183c9190615069565b9081526020016040518091039020541461188b576040517f08c379a000000000000000000000000000000000000000000000000000000000815260040161188290615361565b60405180910390fd5b60006001549050600160008154809291906118a5906150e3565b91905055506118ba8186868686878c8d61310c565b505050505050565b6000806000838152602001908152602001600020600101549050919050565b6118ea826118c2565b6118f3816135a1565b6118fd83836135b5565b505050565b61190a613695565b73ffffffffffffffffffffffffffffffffffffffff168173ffffffffffffffffffffffffffffffffffffffff1614611977576040517f08c379a000000000000000000000000000000000000000000000000000000000815260040161196e906153f3565b60405180910390fd5b611981828261369d565b5050565b61198d613c08565b6003600083815260200190815260200160002060405180610180016040529081600082015481526020016001820160009054906101000a900473ffffffffffffffffffffffffffffffffffffffff1673ffffffffffffffffffffffffffffffffffffffff1673ffffffffffffffffffffffffffffffffffffffff168152602001600282018054611a1c90614ac7565b80601f0160208091040260200160405190810160405280929190818152602001828054611a4890614ac7565b8015611a955780601f10611a6a57610100808354040283529160200191611a95565b820191906000526020600020905b815481529060010190602001808311611a7857829003601f168201915b50505050508152602001600382018054611aae90614ac7565b80601f0160208091040260200160405190810160405280929190818152602001828054611ada90614ac7565b8015611b275780601f10611afc57610100808354040283529160200191611b27565b820191906000526020600020905b815481529060010190602001808311611b0a57829003601f168201915b50505050508152602001600482018054611b4090614ac7565b80601f0160208091040260200160405190810160405280929190818152602001828054611b6c90614ac7565b8015611bb95780601f10611b8e57610100808354040283529160200191611bb9565b820191906000526020600020905b815481529060010190602001808311611b9c57829003601f168201915b50505050508152602001600582018054611bd290614ac7565b80601f0160208091040260200160405190810160405280929190818152602001828054611bfe90614ac7565b8015611c4b5780601f10611c2057610100808354040283529160200191611c4b565b820191906000526020600020905b815481529060010190602001808311611c2e57829003601f168201915b50505050508152602001600682018054611c6490614ac7565b80601f0160208091040260200160405190810160405280929190818152602001828054611c9090614ac7565b8015611cdd5780601f10611cb257610100808354040283529160200191611cdd565b820191906000526020600020905b815481529060010190602001808311611cc057829003601f168201915b505050505081526020016007820160009054906101000a900473ffffffffffffffffffffffffffffffffffffffff1673ffffffffffffffffffffffffffffffffffffffff1673ffffffffffffffffffffffffffffffffffffffff1681526020016008820160009054906101000a900473ffffffffffffffffffffffffffffffffffffffff1673ffffffffffffffffffffffffffffffffffffffff1673ffffffffffffffffffffffffffffffffffffffff1681526020016008820160149054906101000a900460ff1660ff1660ff16815260200160098201600580602002604051908101604052809291906000905b82821015611e6e578382018054611de190614ac7565b80601f0160208091040260200160405190810160405280929190818152602001828054611e0d90614ac7565b8015611e5a5780601f10611e2f57610100808354040283529160200191611e5a565b820191906000526020600020905b815481529060010190602001808311611e3d57829003601f168201915b505050505081526020019060010190611dcb565b505050508152602001600e8201600580602002604051908101604052809291908260058015611ee7576020028201916000905b82829054906101000a900460ff166003811115611ec157611ec06145ae565b5b81526020019060010190602082600001049283019260010382029150808411611ea15790505b5050505050815250509050919050565b611f217f535441544553000000000000000000000000000000000000000000000000000033611ff8565b611f60576040517f08c379a0000000000000000000000000000000000000000000000000000000008152600401611f579061545f565b60405180910390fd5b6001600960003373ffffffffffffffffffffffffffffffffffffffff1673ffffffffffffffffffffffffffffffffffffffff16815260200190815260200160002060008373ffffffffffffffffffffffffffffffffffffffff1673ffffffffffffffffffffffffffffffffffffffff16815260200190815260200160002060006101000a81548160ff02191690831515021790555050565b600080600084815260200190815260200160002060000160008373ffffffffffffffffffffffffffffffffffffffff1673ffffffffffffffffffffffffffffffffffffffff16815260200190815260200160002060009054906101000a900460ff16905092915050565b6000801b81565b6120937f454d504c4f59455200000000000000000000000000000000000000000000000033611ff8565b6120d2576040517f08c379a00000000000000000000000000000000000000000000000000000000081526004016120c9906154f1565b60405180910390fd5b60011515600960008373ffffffffffffffffffffffffffffffffffffffff1673ffffffffffffffffffffffffffffffffffffffff16815260200190815260200160002060003373ffffffffffffffffffffffffffffffffffffffff1673ffffffffffffffffffffffffffffffffffffffff16815260200190815260200160002060009054906101000a900460ff161515146121a2576040517f08c379a00000000000000000000000000000000000000000000000000000000081526004016121999061523d565b60405180910390fd5b60006004600085815260200190815260200160002060405180610100016040529081600082015481526020016001820180546121dd90614ac7565b80601f016020809104026020016040519081016040528092919081815260200182805461220990614ac7565b80156122565780601f1061222b57610100808354040283529160200191612256565b820191906000526020600020905b81548152906001019060200180831161223957829003601f168201915b5050505050815260200160028201805461226f90614ac7565b80601f016020809104026020016040519081016040528092919081815260200182805461229b90614ac7565b80156122e85780601f106122bd576101008083540402835291602001916122e8565b820191906000526020600020905b8154815290600101906020018083116122cb57829003601f168201915b5050505050815260200160038201805461230190614ac7565b80601f016020809104026020016040519081016040528092919081815260200182805461232d90614ac7565b801561237a5780601f1061234f5761010080835404028352916020019161237a565b820191906000526020600020905b81548152906001019060200180831161235d57829003601f168201915b5050505050815260200160048201805461239390614ac7565b80601f01602080910402602001604051908101604052809291908181526020018280546123bf90614ac7565b801561240c5780601f106123e15761010080835404028352916020019161240c565b820191906000526020600020905b8154815290600101906020018083116123ef57829003601f168201915b505050505081526020016005820160009054906101000a900473ffffffffffffffffffffffffffffffffffffffff1673ffffffffffffffffffffffffffffffffffffffff1673ffffffffffffffffffffffffffffffffffffffff16815260200160068201600580602002604051908101604052809291906000905b8282101561252a57838201805461249d90614ac7565b80601f01602080910402602001604051908101604052809291908181526020018280546124c990614ac7565b80156125165780601f106124eb57610100808354040283529160200191612516565b820191906000526020600020905b8154815290600101906020018083116124f957829003601f168201915b505050505081526020019060010190612487565b505050508152602001600b82016005806020026040519081016040528092919082600580156125a3576020028201916000905b82829054906101000a900460ff16600381111561257d5761257c6145ae565b5b8152602001906001019060208260000104928301926001038202915080841161255d5790505b50505050508152505090506125d2848260200151836040015184606001518560800151888760a001518961310c565b50505050565b60086000848152602001908152602001600020600083815260200190815260200160002060009054906101000a900460ff16612649576040517f08c379a00000000000000000000000000000000000000000000000000000000081526004016126409061555d565b60405180910390fd5b6126538233611ff8565b612692576040517f08c379a0000000000000000000000000000000000000000000000000000000008152600401612689906155c9565b60405180910390fd5b60006003600086815260200190815260200160002090506040518060400160405280600981526020017f4e4f545349474e454400000000000000000000000000000000000000000000008152506040516020016126ef9190615625565b6040516020818303038152906040528051906020012081600901856005811061271b5761271a614b64565b5b0160405160200161272c91906156d4565b6040516020818303038152906040528051906020012014612782576040517f08c379a000000000000000000000000000000000000000000000000000000000815260040161277990615737565b60405180910390fd5b6001840361281d578060080160009054906101000a900473ffffffffffffffffffffffffffffffffffffffff1673ffffffffffffffffffffffffffffffffffffffff163373ffffffffffffffffffffffffffffffffffffffff161461281c576040517f08c379a0000000000000000000000000000000000000000000000000000000008152600401612813906157a3565b60405180910390fd5b5b600260009054906101000a900473ffffffffffffffffffffffffffffffffffffffff1673ffffffffffffffffffffffffffffffffffffffff1663b7a1779b33836000015484600201856003018660040187600501886006018960070160009054906101000a900473ffffffffffffffffffffffffffffffffffffffff168a60080160009054906101000a900473ffffffffffffffffffffffffffffffffffffffff168c6040518b63ffffffff1660e01b81526004016128e59a99989796959493929190615891565b602060405180830381865afa158015612902573d6000803e3d6000fd5b505050506040513d601f19601f820116820180604052508101906129269190615983565b156129d657600181600e01856005811061294357612942614b64565b5b602091828204019190066101000a81548160ff0219169083600381111561296d5761296c6145ae565b5b02179055508181600901856005811061298957612988614b64565b5b01908161299691906159f6565b5080600801601481819054906101000a900460ff16809291906129b890615ac8565b91906101000a81548160ff021916908360ff16021790555050612b58565b600260009054906101000a900473ffffffffffffffffffffffffffffffffffffffff1673ffffffffffffffffffffffffffffffffffffffff1663d5ba17f63387856040518463ffffffff1660e01b8152600401612a3593929190615af1565b602060405180830381865afa158015612a52573d6000803e3d6000fd5b505050506040513d601f19601f82011682018060405250810190612a769190615983565b15612b5757600281600e018560058110612a9357612a92614b64565b5b602091828204019190066101000a81548160ff02191690836003811115612abd57612abc6145ae565b5b02179055506040518060400160405280600881526020017f4445434c494e4544000000000000000000000000000000000000000000000000815250816009018560058110612b0e57612b0d614b64565b5b019081612b1b91906159f6565b5080600801601481819054906101000a900460ff1680929190612b3d90615ac8565b91906101000a81548160ff021916908360ff160217905550505b5b5050505050565b612b68826118c2565b612b71816135a1565b612b7b838361369d565b505050565b612b88613cba565b600460008381526020019081526020016000206040518061010001604052908160008201548152602001600182018054612bc190614ac7565b80601f0160208091040260200160405190810160405280929190818152602001828054612bed90614ac7565b8015612c3a5780601f10612c0f57610100808354040283529160200191612c3a565b820191906000526020600020905b815481529060010190602001808311612c1d57829003601f168201915b50505050508152602001600282018054612c5390614ac7565b80601f0160208091040260200160405190810160405280929190818152602001828054612c7f90614ac7565b8015612ccc5780601f10612ca157610100808354040283529160200191612ccc565b820191906000526020600020905b815481529060010190602001808311612caf57829003601f168201915b50505050508152602001600382018054612ce590614ac7565b80601f0160208091040260200160405190810160405280929190818152602001828054612d1190614ac7565b8015612d5e5780601f10612d3357610100808354040283529160200191612d5e565b820191906000526020600020905b815481529060010190602001808311612d4157829003601f168201915b50505050508152602001600482018054612d7790614ac7565b80601f0160208091040260200160405190810160405280929190818152602001828054612da390614ac7565b8015612df05780601f10612dc557610100808354040283529160200191612df0565b820191906000526020600020905b815481529060010190602001808311612dd357829003601f168201915b505050505081526020016005820160009054906101000a900473ffffffffffffffffffffffffffffffffffffffff1673ffffffffffffffffffffffffffffffffffffffff1673ffffffffffffffffffffffffffffffffffffffff16815260200160068201600580602002604051908101604052809291906000905b82821015612f0e578382018054612e8190614ac7565b80601f0160208091040260200160405190810160405280929190818152602001828054612ead90614ac7565b8015612efa5780601f10612ecf57610100808354040283529160200191612efa565b820191906000526020600020905b815481529060010190602001808311612edd57829003601f168201915b505050505081526020019060010190612e6b565b505050508152602001600b8201600580602002604051908101604052809291908260058015612f87576020028201916000905b82829054906101000a900460ff166003811115612f6157612f606145ae565b5b81526020019060010190602082600001049283019260010382029150808411612f415790505b5050505050815250509050919050565b6000600154905090565b612fcb7f535441544553000000000000000000000000000000000000000000000000000033611ff8565b61300a576040517f08c379a000000000000000000000000000000000000000000000000000000000815260040161300190615b7b565b60405180910390fd5b6000600960003373ffffffffffffffffffffffffffffffffffffffff1673ffffffffffffffffffffffffffffffffffffffff16815260200190815260200160002060008373ffffffffffffffffffffffffffffffffffffffff1673ffffffffffffffffffffffffffffffffffffffff16815260200190815260200160002060006101000a81548160ff02191690831515021790555050565b60007f01ffc9a7000000000000000000000000000000000000000000000000000000007bffffffffffffffffffffffffffffffffffffffffffffffffffffffff1916827bffffffffffffffffffffffffffffffffffffffffffffffffffffffff1916149050919050565b6040518061018001604052808981526020013373ffffffffffffffffffffffffffffffffffffffff1681526020018881526020018781526020018681526020018581526020018481526020018373ffffffffffffffffffffffffffffffffffffffff1681526020018273ffffffffffffffffffffffffffffffffffffffff168152602001600560ff1681526020016040518060a001604052806040518060400160405280600981526020017f4e4f545349474e4544000000000000000000000000000000000000000000000081525081526020016040518060400160405280600981526020017f4e4f545349474e4544000000000000000000000000000000000000000000000081525081526020016040518060400160405280600981526020017f4e4f545349474e4544000000000000000000000000000000000000000000000081525081526020016040518060400160405280600981526020017f4e4f545349474e4544000000000000000000000000000000000000000000000081525081526020016040518060400160405280600981526020017f4e4f545349474e4544000000000000000000000000000000000000000000000081525081525081526020016040518060a00160405280600060038111156132ee576132ed6145ae565b5b6003811115613300576132ff6145ae565b5b815260200160006003811115613319576133186145ae565b5b600381111561332b5761332a6145ae565b5b815260200160006003811115613344576133436145ae565b5b6003811115613356576133556145ae565b5b81526020016000600381111561336f5761336e6145ae565b5b6003811115613381576133806145ae565b5b81526020016000600381111561339a576133996145ae565b5b60038111156133ac576133ab6145ae565b5b815250815250600360008a81526020019081526020016000206000820151816000015560208201518160010160006101000a81548173ffffffffffffffffffffffffffffffffffffffff021916908373ffffffffffffffffffffffffffffffffffffffff160217905550604082015181600201908161342b9190614f5b565b5060608201518160030190816134419190614f5b565b5060808201518160040190816134579190614f5b565b5060a082015181600501908161346d9190614f5b565b5060c08201518160060190816134839190614f5b565b5060e08201518160070160006101000a81548173ffffffffffffffffffffffffffffffffffffffff021916908373ffffffffffffffffffffffffffffffffffffffff1602179055506101008201518160080160006101000a81548173ffffffffffffffffffffffffffffffffffffffff021916908373ffffffffffffffffffffffffffffffffffffffff1602179055506101208201518160080160146101000a81548160ff021916908360ff1602179055506101408201518160090190600561354d929190613a6c565b5061016082015181600e01906005613566929190613ab8565b50905050877f248dd4076d0a389d795107efafd558ce7f31ae37b441ccb9a599c60868f480d560405160405180910390a25050505050505050565b6135b2816135ad613695565b61377e565b50565b6135bf8282611ff8565b61369157600160008084815260200190815260200160002060000160008373ffffffffffffffffffffffffffffffffffffffff1673ffffffffffffffffffffffffffffffffffffffff16815260200190815260200160002060006101000a81548160ff021916908315150217905550613636613695565b73ffffffffffffffffffffffffffffffffffffffff168173ffffffffffffffffffffffffffffffffffffffff16837f2f8788117e7eff1d82e926ec794901d17c78024a50270940304540a733656f0d60405160405180910390a45b5050565b600033905090565b6136a78282611ff8565b1561377a57600080600084815260200190815260200160002060000160008373ffffffffffffffffffffffffffffffffffffffff1673ffffffffffffffffffffffffffffffffffffffff16815260200190815260200160002060006101000a81548160ff02191690831515021790555061371f613695565b73ffffffffffffffffffffffffffffffffffffffff168173ffffffffffffffffffffffffffffffffffffffff16837ff6391f5c32d9c69d2a47ea670b442974b53935d1edc7fd64eb21e047a839171b60405160405180910390a45b5050565b6137888282611ff8565b6137ff5761379581613803565b6137a38360001c6020613830565b6040516020016137b4929190615c33565b6040516020818303038152906040526040517f08c379a00000000000000000000000000000000000000000000000000000000081526004016137f69190615c6d565b60405180910390fd5b5050565b60606138298273ffffffffffffffffffffffffffffffffffffffff16601460ff16613830565b9050919050565b6060600060028360026138439190615c8f565b61384d919061512b565b67ffffffffffffffff81111561386657613865614129565b5b6040519080825280601f01601f1916602001820160405280156138985781602001600182028036833780820191505090505b5090507f3000000000000000000000000000000000000000000000000000000000000000816000815181106138d0576138cf614b64565b5b60200101907effffffffffffffffffffffffffffffffffffffffffffffffffffffffffffff1916908160001a9053507f78000000000000000000000000000000000000000000000000000000000000008160018151811061393457613933614b64565b5b60200101907effffffffffffffffffffffffffffffffffffffffffffffffffffffffffffff1916908160001a905350600060018460026139749190615c8f565b61397e919061512b565b90505b6001811115613a1e577f3031323334353637383961626364656600000000000000000000000000000000600f8616601081106139c0576139bf614b64565b5b1a60f81b8282815181106139d7576139d6614b64565b5b60200101907effffffffffffffffffffffffffffffffffffffffffffffffffffffffffffff1916908160001a905350600485901c945080613a1790615cd1565b9050613981565b5060008414613a62576040517f08c379a0000000000000000000000000000000000000000000000000000000008152600401613a5990615d46565b60405180910390fd5b8091505092915050565b8260058101928215613aa7579160200282015b82811115613aa6578251829081613a9691906159f6565b5091602001919060010190613a7f565b5b509050613ab49190613d21565b5090565b826005601f01602090048101928215613b505791602002820160005b83821115613b2157835183826101000a81548160ff02191690836003811115613b0057613aff6145ae565b5b02179055509260200192600101602081600001049283019260010302613ad4565b8015613b4e5782816101000a81549060ff0219169055600101602081600001049283019260010302613b21565b505b509050613b5d9190613d45565b5090565b828054828255906000526020600020908101928215613b9d579160200282015b82811115613b9c578251825591602001919060010190613b81565b5b509050613baa9190613d45565b5090565b508054613bba90614ac7565b6000825580601f10613bcc5750613beb565b601f016020900490600052602060002090810190613bea9190613d45565b5b50565b508060050190613bfe9190613d21565b50565b5060009055565b60405180610180016040528060008152602001600073ffffffffffffffffffffffffffffffffffffffff1681526020016060815260200160608152602001606081526020016060815260200160608152602001600073ffffffffffffffffffffffffffffffffffffffff168152602001600073ffffffffffffffffffffffffffffffffffffffff168152602001600060ff168152602001613ca7613d62565b8152602001613cb4613d89565b81525090565b6040518061010001604052806000815260200160608152602001606081526020016060815260200160608152602001600073ffffffffffffffffffffffffffffffffffffffff168152602001613d0e613d62565b8152602001613d1b613d89565b81525090565b5b80821115613d415760008181613d389190613dab565b50600101613d22565b5090565b5b80821115613d5e576000816000905550600101613d46565b5090565b6040518060a001604052806005905b6060815260200190600190039081613d715790505090565b6040518060a00160405280600590602082028036833780820191505090505090565b508054613db790614ac7565b6000825580601f10613dc95750613de8565b601f016020900490600052602060002090810190613de79190613d45565b5b50565b6000604051905090565b600080fd5b600080fd5b60007fffffffff0000000000000000000000000000000000000000000000000000000082169050919050565b613e3481613dff565b8114613e3f57600080fd5b50565b600081359050613e5181613e2b565b92915050565b600060208284031215613e6d57613e6c613df5565b5b6000613e7b84828501613e42565b91505092915050565b60008115159050919050565b613e9981613e84565b82525050565b6000602082019050613eb46000830184613e90565b92915050565b6000819050919050565b613ecd81613eba565b8114613ed857600080fd5b50565b600081359050613eea81613ec4565b92915050565b600060208284031215613f0657613f05613df5565b5b6000613f1484828501613edb565b91505092915050565b613f2681613eba565b82525050565b600073ffffffffffffffffffffffffffffffffffffffff82169050919050565b6000613f5782613f2c565b9050919050565b613f6781613f4c565b82525050565b600081519050919050565b600082825260208201905092915050565b60005b83811015613fa7578082015181840152602081019050613f8c565b60008484015250505050565b6000601f19601f8301169050919050565b6000613fcf82613f6d565b613fd98185613f78565b9350613fe9818560208601613f89565b613ff281613fb3565b840191505092915050565b600060ff82169050919050565b61401381613ffd565b82525050565b60006101408201905061402f600083018d613f1d565b61403c602083018c613f5e565b818103604083015261404e818b613fc4565b90508181036060830152614062818a613fc4565b905081810360808301526140768189613fc4565b905081810360a083015261408a8188613fc4565b905081810360c083015261409e8187613fc4565b90506140ad60e0830186613f5e565b6140bb610100830185613f5e565b6140c961012083018461400a565b9b9a5050505050505050505050565b60006020820190506140ed6000830184613f1d565b92915050565b6140fc81613f4c565b811461410757600080fd5b50565b600081359050614119816140f3565b92915050565b600080fd5b600080fd5b7f4e487b7100000000000000000000000000000000000000000000000000000000600052604160045260246000fd5b61416182613fb3565b810181811067ffffffffffffffff821117156141805761417f614129565b5b80604052505050565b6000614193613deb565b905061419f8282614158565b919050565b600067ffffffffffffffff8211156141bf576141be614129565b5b6141c882613fb3565b9050602081019050919050565b82818337600083830152505050565b60006141f76141f2846141a4565b614189565b90508281526020810184848401111561421357614212614124565b5b61421e8482856141d5565b509392505050565b600082601f83011261423b5761423a61411f565b5b813561424b8482602086016141e4565b91505092915050565b600080600080600060a086880312156142705761426f613df5565b5b600061427e8882890161410a565b955050602086013567ffffffffffffffff81111561429f5761429e613dfa565b5b6142ab88828901614226565b945050604086013567ffffffffffffffff8111156142cc576142cb613dfa565b5b6142d888828901614226565b935050606086013567ffffffffffffffff8111156142f9576142f8613dfa565b5b61430588828901614226565b925050608086013567ffffffffffffffff81111561432657614325613dfa565b5b61433288828901614226565b9150509295509295909350565b6000819050919050565b6143528161433f565b811461435d57600080fd5b50565b60008135905061436f81614349565b92915050565b60006020828403121561438b5761438a613df5565b5b600061439984828501614360565b91505092915050565b6143ab8161433f565b82525050565b60006020820190506143c660008301846143a2565b92915050565b600080604083850312156143e3576143e2613df5565b5b60006143f185828601614360565b92505060206144028582860161410a565b9150509250929050565b61441581613eba565b82525050565b61442481613f4c565b82525050565b600082825260208201905092915050565b600061444682613f6d565b614450818561442a565b9350614460818560208601613f89565b61446981613fb3565b840191505092915050565b61447d81613ffd565b82525050565b600060059050919050565b600081905092915050565b6000819050919050565b600081519050919050565b600082825260208201905092915050565b60006144ca826144a3565b6144d481856144ae565b93506144e4818560208601613f89565b6144ed81613fb3565b840191505092915050565b600061450483836144bf565b905092915050565b6000602082019050919050565b600061452482614483565b61452e818561448e565b93508360208202850161454085614499565b8060005b8581101561457c578484038952815161455d85826144f8565b94506145688361450c565b925060208a01995050600181019050614544565b50829750879550505050505092915050565b600060059050919050565b600081905092915050565b6000819050919050565b7f4e487b7100000000000000000000000000000000000000000000000000000000600052602160045260246000fd5b600481106145ee576145ed6145ae565b5b50565b60008190506145ff826145dd565b919050565b600061460f826145f1565b9050919050565b61461f81614604565b82525050565b60006146318383614616565b60208301905092915050565b6000602082019050919050565b6146538161458e565b61465d8184614599565b9250614668826145a4565b8060005b838110156146995781516146808782614625565b965061468b8361463d565b92505060018101905061466c565b505050505050565b6000610200830160008301516146ba600086018261440c565b5060208301516146cd602086018261441b565b50604083015184820360408601526146e5828261443b565b915050606083015184820360608601526146ff828261443b565b91505060808301518482036080860152614719828261443b565b91505060a083015184820360a0860152614733828261443b565b91505060c083015184820360c086015261474d828261443b565b91505060e083015161476260e086018261441b565b5061010083015161477761010086018261441b565b5061012083015161478c610120860182614474565b506101408301518482036101408601526147a68282614519565b9150506101608301516147bd61016086018261464a565b508091505092915050565b600060208201905081810360008301526147e281846146a1565b905092915050565b600060208284031215614800576147ff613df5565b5b600061480e8482850161410a565b91505092915050565b6000806000606084860312156148305761482f613df5565b5b600061483e86828701613edb565b935050602084013567ffffffffffffffff81111561485f5761485e613dfa565b5b61486b86828701614226565b925050604061487c8682870161410a565b9150509250925092565b600067ffffffffffffffff8211156148a1576148a0614129565b5b6148aa82613fb3565b9050602081019050919050565b60006148ca6148c584614886565b614189565b9050828152602081018484840111156148e6576148e5614124565b5b6148f18482856141d5565b509392505050565b600082601f83011261490e5761490d61411f565b5b813561491e8482602086016148b7565b91505092915050565b6000806000806080858703121561494157614940613df5565b5b600061494f87828801613edb565b945050602061496087828801613edb565b935050604061497187828801614360565b925050606085013567ffffffffffffffff81111561499257614991613dfa565b5b61499e878288016148f9565b91505092959194509250565b6000610180830160008301516149c3600086018261440c565b50602083015184820360208601526149db828261443b565b915050604083015184820360408601526149f5828261443b565b91505060608301518482036060860152614a0f828261443b565b91505060808301518482036080860152614a29828261443b565b91505060a0830151614a3e60a086018261441b565b5060c083015184820360c0860152614a568282614519565b91505060e0830151614a6b60e086018261464a565b508091505092915050565b60006020820190508181036000830152614a9081846149aa565b905092915050565b7f4e487b7100000000000000000000000000000000000000000000000000000000600052602260045260246000fd5b60006002820490506001821680614adf57607f821691505b602082108103614af257614af1614a98565b5b50919050565b7f4e6f20456e6f756768205369676e617465757200000000000000000000000000600082015250565b6000614b2e601383613f78565b9150614b3982614af8565b602082019050919050565b60006020820190508181036000830152614b5d81614b21565b9050919050565b7f4e487b7100000000000000000000000000000000000000000000000000000000600052603260045260246000fd5b7f54686520476f7665726e6d656e7420686173206465636c696e65640000000000600082015250565b6000614bc9601b83613f78565b9150614bd482614b93565b602082019050919050565b60006020820190508181036000830152614bf881614bbc565b9050919050565b7f54686520456d706c6f79657220686173206465636c696e656400000000000000600082015250565b6000614c35601983613f78565b9150614c4082614bff565b602082019050919050565b60006020820190508181036000830152614c6481614c28565b9050919050565b7f54686520506f6c69636520686173206465636c696e6564000000000000000000600082015250565b6000614ca1601783613f78565b9150614cac82614c6b565b602082019050919050565b60006020820190508181036000830152614cd081614c94565b9050919050565b7f54686520446a6f6e6461726d20686173206465636c696e656400000000000000600082015250565b6000614d0d601983613f78565b9150614d1882614cd7565b602082019050919050565b60006020820190508181036000830152614d3c81614d00565b9050919050565b7f54686520546178657320686173206465636c696e656400000000000000000000600082015250565b6000614d79601683613f78565b9150614d8482614d43565b602082019050919050565b60006020820190508181036000830152614da881614d6c565b9050919050565b60008190508160005260206000209050919050565b60006020601f8301049050919050565b600082821b905092915050565b600060088302614e117fffffffffffffffffffffffffffffffffffffffffffffffffffffffffffffffff82614dd4565b614e1b8683614dd4565b95508019841693508086168417925050509392505050565b6000819050919050565b6000614e58614e53614e4e84613eba565b614e33565b613eba565b9050919050565b6000819050919050565b614e7283614e3d565b614e86614e7e82614e5f565b848454614de1565b825550505050565b600090565b614e9b614e8e565b614ea6818484614e69565b505050565b5b81811015614eca57614ebf600082614e93565b600181019050614eac565b5050565b601f821115614f0f57614ee081614daf565b614ee984614dc4565b81016020851015614ef8578190505b614f0c614f0485614dc4565b830182614eab565b50505b505050565b600082821c905092915050565b6000614f3260001984600802614f14565b1980831691505092915050565b6000614f4b8383614f21565b9150826002028217905092915050565b614f6482613f6d565b67ffffffffffffffff811115614f7d57614f7c614129565b5b614f878254614ac7565b614f92828285614ece565b600060209050601f831160018114614fc55760008415614fb3578287015190505b614fbd8582614f3f565b865550615025565b601f198416614fd386614daf565b60005b82811015614ffb57848901518255600182019150602085019450602081019050614fd6565b868310156150185784890151615014601f891682614f21565b8355505b6001600288020188555050505b505050505050565b600081905092915050565b600061504382613f6d565b61504d818561502d565b935061505d818560208601613f89565b80840191505092915050565b60006150758284615038565b915081905092915050565b7f4e487b7100000000000000000000000000000000000000000000000000000000600052601160045260246000fd5b60006150ba82613eba565b91506150c583613eba565b92508282039050818111156150dd576150dc615080565b5b92915050565b60006150ee82613eba565b91507fffffffffffffffffffffffffffffffffffffffffffffffffffffffffffffffff82036151205761511f615080565b5b600182019050919050565b600061513682613eba565b915061514183613eba565b925082820190508082111561515957615158615080565b5b92915050565b7f4f6e6c7920656d706c6f796572732063616e206164642061206e65772072656760008201527f697374726174696f6e2063657274696669636174652e00000000000000000000602082015250565b60006151bb603683613f78565b91506151c68261515f565b604082019050919050565b600060208201905081810360008301526151ea816151ae565b9050919050565b7f5354415445204f5220454d504c4f594552000000000000000000000000000000600082015250565b6000615227601183613f78565b9150615232826151f1565b602082019050919050565b600060208201905081810360008301526152568161521a565b9050919050565b7f5468652056656869636c65204964656e74696669636174696f6e204e756d626560008201527f7220616c72656164792072656769737472656400000000000000000000000000602082015250565b60006152b9603383613f78565b91506152c48261525d565b604082019050919050565b600060208201905081810360008301526152e8816152ac565b9050919050565b7f5468652056656869636c6520526567697374726174696f6e20506c617465732060008201527f616c726561647920726567697374726564000000000000000000000000000000602082015250565b600061534b603183613f78565b9150615356826152ef565b604082019050919050565b6000602082019050818103600083015261537a8161533e565b9050919050565b7f416363657373436f6e74726f6c3a2063616e206f6e6c792072656e6f756e636560008201527f20726f6c657320666f722073656c660000000000000000000000000000000000602082015250565b60006153dd602f83613f78565b91506153e882615381565b604082019050919050565b6000602082019050818103600083015261540c816153d0565b9050919050565b7f4f6e6c792073746174652063616e2061646420656d706c6f796572732e000000600082015250565b6000615449601d83613f78565b915061545482615413565b602082019050919050565b600060208201905081810360008301526154788161543c565b9050919050565b7f4f6e6c7920656d706c6f796572732063616e207472616e73666572207265676960008201527f7374726174696f6e2063657274696669636174652e0000000000000000000000602082015250565b60006154db603583613f78565b91506154e68261547f565b604082019050919050565b6000602082019050818103600083015261550a816154ce565b9050919050565b7f5468697320726f6c65206973206e6f7420726567697374726564000000000000600082015250565b6000615547601a83613f78565b915061555282615511565b602082019050919050565b600060208201905081810360008301526155768161553a565b9050919050565b7f6572726f72206f6e20726f6c6500000000000000000000000000000000000000600082015250565b60006155b3600d83613f78565b91506155be8261557d565b602082019050919050565b600060208201905081810360008301526155e2816155a6565b9050919050565b600081905092915050565b60006155ff826144a3565b61560981856155e9565b9350615619818560208601613f89565b80840191505092915050565b600061563182846155f4565b915081905092915050565b60008190508160005260206000209050919050565b6000815461565e81614ac7565b61566881866155e9565b945060018216600081146156835760018114615698576156cb565b60ff19831686528115158202860193506156cb565b6156a18561563c565b60005b838110156156c3578154818901526001820191506020810190506156a4565b838801955050505b50505092915050565b60006156e08284615651565b915081905092915050565b7f416c7265616479205369676e6564000000000000000000000000000000000000600082015250565b6000615721600e83613f78565b915061572c826156eb565b602082019050919050565b6000602082019050818103600083015261575081615714565b9050919050565b7f4572726f72206f6e205374617465000000000000000000000000000000000000600082015250565b600061578d600e83613f78565b915061579882615757565b602082019050919050565b600060208201905081810360008301526157bc81615780565b9050919050565b600081546157d081614ac7565b6157da8186613f78565b945060018216600081146157f5576001811461580b5761583e565b60ff19831686528115156020028601935061583e565b61581485614daf565b60005b8381101561583657815481890152600182019150602081019050615817565b808801955050505b50505092915050565b600082825260208201905092915050565b6000615863826144a3565b61586d8185615847565b935061587d818560208601613f89565b61588681613fb3565b840191505092915050565b6000610140820190506158a7600083018d613f5e565b6158b4602083018c613f1d565b81810360408301526158c6818b6157c3565b905081810360608301526158da818a6157c3565b905081810360808301526158ee81896157c3565b905081810360a083015261590281886157c3565b905081810360c083015261591681876157c3565b905061592560e0830186613f5e565b615933610100830185613f5e565b8181036101208301526159468184615858565b90509b9a5050505050505050505050565b61596081613e84565b811461596b57600080fd5b50565b60008151905061597d81615957565b92915050565b60006020828403121561599957615998613df5565b5b60006159a78482850161596e565b91505092915050565b601f8211156159f1576159c28161563c565b6159cb84614dc4565b810160208510156159da578190505b6159ee6159e685614dc4565b830182614eab565b50505b505050565b6159ff826144a3565b67ffffffffffffffff811115615a1857615a17614129565b5b615a228254614ac7565b615a2d8282856159b0565b600060209050601f831160018114615a605760008415615a4e578287015190505b615a588582614f3f565b865550615ac0565b601f198416615a6e8661563c565b60005b82811015615a9657848901518255600182019150602085019450602081019050615a71565b86831015615ab35784890151615aaf601f891682614f21565b8355505b6001600288020188555050505b505050505050565b6000615ad382613ffd565b915060008203615ae657615ae5615080565b5b600182039050919050565b6000606082019050615b066000830186613f5e565b615b136020830185613f1d565b8181036040830152615b258184615858565b9050949350505050565b7f4f6e6c792073746174652063616e2064656c65746520656d706c6f796572732e600082015250565b6000615b65602083613f78565b9150615b7082615b2f565b602082019050919050565b60006020820190508181036000830152615b9481615b58565b9050919050565b7f416363657373436f6e74726f6c3a206163636f756e7420000000000000000000600082015250565b6000615bd160178361502d565b9150615bdc82615b9b565b601782019050919050565b7f206973206d697373696e6720726f6c6520000000000000000000000000000000600082015250565b6000615c1d60118361502d565b9150615c2882615be7565b601182019050919050565b6000615c3e82615bc4565b9150615c4a8285615038565b9150615c5582615c10565b9150615c618284615038565b91508190509392505050565b60006020820190508181036000830152615c878184613fc4565b905092915050565b6000615c9a82613eba565b9150615ca583613eba565b9250828202615cb381613eba565b91508282048414831517615cca57615cc9615080565b5b5092915050565b6000615cdc82613eba565b915060008203615cef57615cee615080565b5b600182039050919050565b7f537472696e67733a20686578206c656e67746820696e73756666696369656e74600082015250565b6000615d30602083613f78565b9150615d3b82615cfa565b602082019050919050565b60006020820190508181036000830152615d5f81615d23565b905091905056fea264697066735822122021cd0a544c489b92b30dab09329521870ab5cfd2fa4e0ae2b3c3da372db87a5164736f6c63430008120033",
  "linkReferences": {},
  "deployedLinkReferences": {}
}