{
  "_format": "hh-sol-artifact-1",
  "contractName": "RegisterCertificates",
  "sourceName": "contracts/RegisterCertificates.sol",
  "abi": [
    {
      "inputs": [
        {
          "internalType": "address",
          "name": "verifySignatureAddress",
          "type": "address"
        }
      ],
      "stateMutability": "nonpayable",
      "type": "constructor"
    },
    {
      "anonymous": false,
      "inputs": [
        {
          "indexed": true,
          "internalType": "bytes32",
          "name": "role",
          "type": "bytes32"
        },
        {
          "indexed": true,
          "internalType": "bytes32",
          "name": "previousAdminRole",
          "type": "bytes32"
        },
        {
          "indexed": true,
          "internalType": "bytes32",
          "name": "newAdminRole",
          "type": "bytes32"
        }
      ],
      "name": "RoleAdminChanged",
      "type": "event"
    },
    {
      "anonymous": false,
      "inputs": [
        {
          "indexed": true,
          "internalType": "bytes32",
          "name": "role",
          "type": "bytes32"
        },
        {
          "indexed": true,
          "internalType": "address",
          "name": "account",
          "type": "address"
        },
        {
          "indexed": true,
          "internalType": "address",
          "name": "sender",
          "type": "address"
        }
      ],
      "name": "RoleGranted",
      "type": "event"
    },
    {
      "anonymous": false,
      "inputs": [
        {
          "indexed": true,
          "internalType": "bytes32",
          "name": "role",
          "type": "bytes32"
        },
        {
          "indexed": true,
          "internalType": "address",
          "name": "account",
          "type": "address"
        },
        {
          "indexed": true,
          "internalType": "address",
          "name": "sender",
          "type": "address"
        }
      ],
      "name": "RoleRevoked",
      "type": "event"
    },
    {
      "anonymous": false,
      "inputs": [
        {
          "indexed": true,
          "internalType": "uint256",
          "name": "registerCertificateId",
          "type": "uint256"
        },
        {
          "indexed": true,
          "internalType": "string",
          "name": "oldOwner",
          "type": "string"
        },
        {
          "indexed": true,
          "internalType": "string",
          "name": "newOwner",
          "type": "string"
        }
      ],
      "name": "Submit",
      "type": "event"
    },
    {
      "anonymous": false,
      "inputs": [
        {
          "indexed": true,
          "internalType": "uint256",
          "name": "registerCertificateId",
          "type": "uint256"
        }
      ],
      "name": "Transfer",
      "type": "event"
    },
    {
      "inputs": [],
      "name": "DEFAULT_ADMIN_ROLE",
      "outputs": [
        {
          "internalType": "bytes32",
          "name": "",
          "type": "bytes32"
        }
      ],
      "stateMutability": "view",
      "type": "function"
    },
    {
      "inputs": [
        {
          "internalType": "uint256",
          "name": "id",
          "type": "uint256"
        },
        {
          "internalType": "uint256",
          "name": "idrole",
          "type": "uint256"
        },
        {
          "internalType": "bytes32",
          "name": "role",
          "type": "bytes32"
        },
        {
          "internalType": "bytes",
          "name": "signature",
          "type": "bytes"
        }
      ],
      "name": "Siging",
      "outputs": [],
      "stateMutability": "nonpayable",
      "type": "function"
    },
    {
      "inputs": [
        {
          "internalType": "uint256",
          "name": "id",
          "type": "uint256"
        }
      ],
      "name": "SubmitRegisterCertificate",
      "outputs": [],
      "stateMutability": "nonpayable",
      "type": "function"
    },
    {
      "inputs": [
        {
          "internalType": "uint256",
          "name": "",
          "type": "uint256"
        }
      ],
      "name": "_idToTemporaryRegisterCertificates",
      "outputs": [
        {
          "internalType": "uint256",
          "name": "registerCertificateId",
          "type": "uint256"
        },
        {
          "internalType": "address",
          "name": "employer",
          "type": "address"
        },
        {
          "internalType": "string",
          "name": "vin",
          "type": "string"
        },
        {
          "internalType": "string",
          "name": "vrp",
          "type": "string"
        },
        {
          "internalType": "string",
          "name": "uri",
          "type": "string"
        },
        {
          "internalType": "string",
          "name": "oldOwner",
          "type": "string"
        },
        {
          "internalType": "string",
          "name": "newOwner",
          "type": "string"
        },
        {
          "internalType": "address",
          "name": "newState",
          "type": "address"
        },
        {
          "internalType": "address",
          "name": "oldState",
          "type": "address"
        },
        {
          "internalType": "uint8",
          "name": "requireSigners",
          "type": "uint8"
        }
      ],
      "stateMutability": "view",
      "type": "function"
    },
    {
      "inputs": [
        {
          "internalType": "address",
          "name": "employer",
          "type": "address"
        }
      ],
      "name": "addEmployer",
      "outputs": [],
      "stateMutability": "nonpayable",
      "type": "function"
    },
    {
      "inputs": [],
      "name": "currentId",
      "outputs": [
        {
          "internalType": "uint256",
          "name": "",
          "type": "uint256"
        }
      ],
      "stateMutability": "view",
      "type": "function"
    },
    {
      "inputs": [
        {
          "internalType": "address",
          "name": "employer",
          "type": "address"
        }
      ],
      "name": "deleteEmployer",
      "outputs": [],
      "stateMutability": "nonpayable",
      "type": "function"
    },
    {
      "inputs": [
        {
          "internalType": "uint256",
          "name": "id",
          "type": "uint256"
        }
      ],
      "name": "getRegisterCertificates",
      "outputs": [
        {
          "components": [
            {
              "internalType": "uint256",
              "name": "registerCertificateId",
              "type": "uint256"
            },
            {
              "internalType": "string",
              "name": "vin",
              "type": "string"
            },
            {
              "internalType": "string",
              "name": "vrp",
              "type": "string"
            },
            {
              "internalType": "string",
              "name": "uri",
              "type": "string"
            },
            {
              "internalType": "string",
              "name": "owner",
              "type": "string"
            },
            {
              "internalType": "bytes[5]",
              "name": "signers",
              "type": "bytes[5]"
            },
            {
              "internalType": "enum RegisterCertificates.Status[5]",
              "name": "status",
              "type": "uint8[5]"
            }
          ],
          "internalType": "struct RegisterCertificates.RegisterCertificate",
          "name": "",
          "type": "tuple"
        }
      ],
      "stateMutability": "view",
      "type": "function"
    },
    {
      "inputs": [
        {
          "internalType": "bytes32",
          "name": "role",
          "type": "bytes32"
        }
      ],
      "name": "getRoleAdmin",
      "outputs": [
        {
          "internalType": "bytes32",
          "name": "",
          "type": "bytes32"
        }
      ],
      "stateMutability": "view",
      "type": "function"
    },
    {
      "inputs": [
        {
          "internalType": "uint256",
          "name": "id",
          "type": "uint256"
        }
      ],
      "name": "getTemporaryRegisterCertificates",
      "outputs": [
        {
          "components": [
            {
              "internalType": "uint256",
              "name": "registerCertificateId",
              "type": "uint256"
            },
            {
              "internalType": "address",
              "name": "employer",
              "type": "address"
            },
            {
              "internalType": "string",
              "name": "vin",
              "type": "string"
            },
            {
              "internalType": "string",
              "name": "vrp",
              "type": "string"
            },
            {
              "internalType": "string",
              "name": "uri",
              "type": "string"
            },
            {
              "internalType": "string",
              "name": "oldOwner",
              "type": "string"
            },
            {
              "internalType": "string",
              "name": "newOwner",
              "type": "string"
            },
            {
              "internalType": "address",
              "name": "newState",
              "type": "address"
            },
            {
              "internalType": "address",
              "name": "oldState",
              "type": "address"
            },
            {
              "internalType": "uint8",
              "name": "requireSigners",
              "type": "uint8"
            },
            {
              "internalType": "bytes[5]",
              "name": "signers",
              "type": "bytes[5]"
            },
            {
              "internalType": "enum RegisterCertificates.Status[5]",
              "name": "status",
              "type": "uint8[5]"
            }
          ],
          "internalType": "struct RegisterCertificates.TemporaryRegisterCertificate",
          "name": "",
          "type": "tuple"
        }
      ],
      "stateMutability": "view",
      "type": "function"
    },
    {
      "inputs": [
        {
          "internalType": "bytes32",
          "name": "role",
          "type": "bytes32"
        },
        {
          "internalType": "address",
          "name": "account",
          "type": "address"
        }
      ],
      "name": "grantRole",
      "outputs": [],
      "stateMutability": "nonpayable",
      "type": "function"
    },
    {
      "inputs": [
        {
          "internalType": "bytes32",
          "name": "role",
          "type": "bytes32"
        },
        {
          "internalType": "address",
          "name": "account",
          "type": "address"
        }
      ],
      "name": "hasRole",
      "outputs": [
        {
          "internalType": "bool",
          "name": "",
          "type": "bool"
        }
      ],
      "stateMutability": "view",
      "type": "function"
    },
    {
      "inputs": [
        {
          "internalType": "address",
          "name": "state",
          "type": "address"
        },
        {
          "internalType": "string",
          "name": "vin",
          "type": "string"
        },
        {
          "internalType": "string",
          "name": "vrp",
          "type": "string"
        },
        {
          "internalType": "string",
          "name": "uri",
          "type": "string"
        },
        {
          "internalType": "string",
          "name": "owner",
          "type": "string"
        }
      ],
      "name": "mintRegisterCertificate",
      "outputs": [],
      "stateMutability": "nonpayable",
      "type": "function"
    },
    {
      "inputs": [
        {
          "internalType": "bytes32",
          "name": "role",
          "type": "bytes32"
        },
        {
          "internalType": "address",
          "name": "account",
          "type": "address"
        }
      ],
      "name": "renounceRole",
      "outputs": [],
      "stateMutability": "nonpayable",
      "type": "function"
    },
    {
      "inputs": [
        {
          "internalType": "bytes32",
          "name": "role",
          "type": "bytes32"
        },
        {
          "internalType": "address",
          "name": "account",
          "type": "address"
        }
      ],
      "name": "revokeRole",
      "outputs": [],
      "stateMutability": "nonpayable",
      "type": "function"
    },
    {
      "inputs": [
        {
          "internalType": "bytes4",
          "name": "interfaceId",
          "type": "bytes4"
        }
      ],
      "name": "supportsInterface",
      "outputs": [
        {
          "internalType": "bool",
          "name": "",
          "type": "bool"
        }
      ],
      "stateMutability": "view",
      "type": "function"
    },
    {
      "inputs": [
        {
          "internalType": "uint256",
          "name": "certificatId",
          "type": "uint256"
        },
        {
          "internalType": "string",
          "name": "oldOwner",
          "type": "string"
        },
        {
          "internalType": "string",
          "name": "newOwner",
          "type": "string"
        },
        {
          "internalType": "address",
          "name": "oldState",
          "type": "address"
        },
        {
          "internalType": "address",
          "name": "newState",
          "type": "address"
        }
      ],
      "name": "transfer",
      "outputs": [],
      "stateMutability": "nonpayable",
      "type": "function"
    }
  ],
  "bytecode": "0x60806040523480156200001157600080fd5b506040516200614438038062006144833981810160405281019062000037919062000450565b80600260006101000a81548173ffffffffffffffffffffffffffffffffffffffff021916908373ffffffffffffffffffffffffffffffffffffffff1602179055506200008d6000801b336200028360201b60201c565b60016000815480929190620000a290620004bb565b919050555060016008600080815260200190815260200160002060007f454d504c4f594552000000000000000000000000000000000000000000000000815260200190815260200160002060006101000a81548160ff0219169083151502179055506001600860006001815260200190815260200160002060007f5354415445530000000000000000000000000000000000000000000000000000815260200190815260200160002060006101000a81548160ff0219169083151502179055506001600860006002815260200190815260200160002060007f504f4c4943450000000000000000000000000000000000000000000000000000815260200190815260200160002060006101000a81548160ff0219169083151502179055506001600860006003815260200190815260200160002060007f47454e4441524d45524945000000000000000000000000000000000000000000815260200190815260200160002060006101000a81548160ff0219169083151502179055506001600860006004815260200190815260200160002060007f5441580000000000000000000000000000000000000000000000000000000000815260200190815260200160002060006101000a81548160ff0219169083151502179055505062000508565b6200029582826200037460201b60201c565b6200037057600160008084815260200190815260200160002060000160008373ffffffffffffffffffffffffffffffffffffffff1673ffffffffffffffffffffffffffffffffffffffff16815260200190815260200160002060006101000a81548160ff02191690831515021790555062000315620003de60201b60201c565b73ffffffffffffffffffffffffffffffffffffffff168173ffffffffffffffffffffffffffffffffffffffff16837f2f8788117e7eff1d82e926ec794901d17c78024a50270940304540a733656f0d60405160405180910390a45b5050565b600080600084815260200190815260200160002060000160008373ffffffffffffffffffffffffffffffffffffffff1673ffffffffffffffffffffffffffffffffffffffff16815260200190815260200160002060009054906101000a900460ff16905092915050565b600033905090565b600080fd5b600073ffffffffffffffffffffffffffffffffffffffff82169050919050565b60006200041882620003eb565b9050919050565b6200042a816200040b565b81146200043657600080fd5b50565b6000815190506200044a816200041f565b92915050565b600060208284031215620004695762000468620003e6565b5b6000620004798482850162000439565b91505092915050565b7f4e487b7100000000000000000000000000000000000000000000000000000000600052601160045260246000fd5b6000819050919050565b6000620004c882620004b1565b91507fffffffffffffffffffffffffffffffffffffffffffffffffffffffffffffffff8203620004fd57620004fc62000482565b5b600182019050919050565b615c2c80620005186000396000f3fe608060405234801561001057600080fd5b506004361061010b5760003560e01c80634613b67e116100a2578063c1a4098b11610071578063c1a4098b146102cf578063d547741f146102eb578063de26a51b14610307578063e00dd16114610337578063e70aa3f4146103555761010b565b80634613b67e1461023557806368b549191461026557806391d1485414610281578063a217fddf146102b15761010b565b80631ca32733116100de5780631ca32733146101b1578063248a9ca3146101cd5780632f2ff15d146101fd57806336568abe146102195761010b565b8063015349351461011057806301ffc9a71461012c578063161ac75d1461015c5780631b925c0514610195575b600080fd5b61012a60048036038101906101259190613ec2565b610371565b005b61014660048036038101906101419190613fcd565b610883565b6040516101539190614015565b60405180910390f35b61017660048036038101906101719190614030565b6108fd565b60405161018c9a99989796959493929190614116565b60405180910390f35b6101af60048036038101906101aa9190614030565b610c66565b005b6101cb60048036038101906101c691906141d5565b611b06565b005b6101e760048036038101906101e291906142f6565b611d38565b6040516101f49190614332565b60405180910390f35b6102176004803603810190610212919061434d565b611d57565b005b610233600480360381019061022e919061434d565b611d78565b005b61024f600480360381019061024a9190614030565b611dfb565b60405161025c9190614749565b60405180910390f35b61027f600480360381019061027a919061476b565b61236d565b005b61029b6004803603810190610296919061434d565b61246e565b6040516102a89190614015565b60405180910390f35b6102b96124d8565b6040516102c69190614332565b60405180910390f35b6102e960048036038101906102e49190614839565b6124df565b005b6103056004803603810190610300919061434d565b6129fb565b005b610321600480360381019061031c9190614030565b612a1c565b60405161032e9190614975565b60405180910390f35b61033f612ddc565b60405161034c9190614997565b60405180910390f35b61036f600480360381019061036a919061476b565b612de6565b005b61039b7f454d504c4f5945520000000000000000000000000000000000000000000000003361246e565b6103da576040517f08c379a00000000000000000000000000000000000000000000000000000000081526004016103d190614a24565b60405180910390fd5b60011515600960008373ffffffffffffffffffffffffffffffffffffffff1673ffffffffffffffffffffffffffffffffffffffff16815260200190815260200160002060003373ffffffffffffffffffffffffffffffffffffffff1673ffffffffffffffffffffffffffffffffffffffff16815260200190815260200160002060009054906101000a900460ff161515146104aa576040517f08c379a00000000000000000000000000000000000000000000000000000000081526004016104a190614a90565b60405180910390fd5b6000600460008781526020019081526020016000206040518060e0016040529081600082015481526020016001820180546104e490614adf565b80601f016020809104026020016040519081016040528092919081815260200182805461051090614adf565b801561055d5780601f106105325761010080835404028352916020019161055d565b820191906000526020600020905b81548152906001019060200180831161054057829003601f168201915b5050505050815260200160028201805461057690614adf565b80601f01602080910402602001604051908101604052809291908181526020018280546105a290614adf565b80156105ef5780601f106105c4576101008083540402835291602001916105ef565b820191906000526020600020905b8154815290600101906020018083116105d257829003601f168201915b5050505050815260200160038201805461060890614adf565b80601f016020809104026020016040519081016040528092919081815260200182805461063490614adf565b80156106815780601f1061065657610100808354040283529160200191610681565b820191906000526020600020905b81548152906001019060200180831161066457829003601f168201915b5050505050815260200160048201805461069a90614adf565b80601f01602080910402602001604051908101604052809291908181526020018280546106c690614adf565b80156107135780601f106106e857610100808354040283529160200191610713565b820191906000526020600020905b8154815290600101906020018083116106f657829003601f168201915b5050505050815260200160058201600580602002604051908101604052809291906000905b828210156107db57838201805461074e90614adf565b80601f016020809104026020016040519081016040528092919081815260200182805461077a90614adf565b80156107c75780601f1061079c576101008083540402835291602001916107c7565b820191906000526020600020905b8154815290600101906020018083116107aa57829003601f168201915b505050505081526020019060010190610738565b505050508152602001600a8201600580602002604051908101604052809291908260058015610854576020028201916000905b82829054906101000a900460ff16600381111561082e5761082d61452f565b5b8152602001906001019060208260000104928301926001038202915080841161080e5790505b505050505081525050905061087b8682602001518360400151846060015189898989612ee7565b505050505050565b60007f7965db0b000000000000000000000000000000000000000000000000000000007bffffffffffffffffffffffffffffffffffffffffffffffffffffffff1916827bffffffffffffffffffffffffffffffffffffffffffffffffffffffff191614806108f657506108f58261337c565b5b9050919050565b60036020528060005260406000206000915090508060000154908060010160009054906101000a900473ffffffffffffffffffffffffffffffffffffffff169080600201805461094c90614adf565b80601f016020809104026020016040519081016040528092919081815260200182805461097890614adf565b80156109c55780601f1061099a576101008083540402835291602001916109c5565b820191906000526020600020905b8154815290600101906020018083116109a857829003601f168201915b5050505050908060030180546109da90614adf565b80601f0160208091040260200160405190810160405280929190818152602001828054610a0690614adf565b8015610a535780601f10610a2857610100808354040283529160200191610a53565b820191906000526020600020905b815481529060010190602001808311610a3657829003601f168201915b505050505090806004018054610a6890614adf565b80601f0160208091040260200160405190810160405280929190818152602001828054610a9490614adf565b8015610ae15780601f10610ab657610100808354040283529160200191610ae1565b820191906000526020600020905b815481529060010190602001808311610ac457829003601f168201915b505050505090806005018054610af690614adf565b80601f0160208091040260200160405190810160405280929190818152602001828054610b2290614adf565b8015610b6f5780601f10610b4457610100808354040283529160200191610b6f565b820191906000526020600020905b815481529060010190602001808311610b5257829003601f168201915b505050505090806006018054610b8490614adf565b80601f0160208091040260200160405190810160405280929190818152602001828054610bb090614adf565b8015610bfd5780601f10610bd257610100808354040283529160200191610bfd565b820191906000526020600020905b815481529060010190602001808311610be057829003601f168201915b5050505050908060070160009054906101000a900473ffffffffffffffffffffffffffffffffffffffff16908060080160009054906101000a900473ffffffffffffffffffffffffffffffffffffffff16908060080160149054906101000a900460ff1690508a565b60006003600083815260200190815260200160002060405180610180016040529081600082015481526020016001820160009054906101000a900473ffffffffffffffffffffffffffffffffffffffff1673ffffffffffffffffffffffffffffffffffffffff1673ffffffffffffffffffffffffffffffffffffffff168152602001600282018054610cf790614adf565b80601f0160208091040260200160405190810160405280929190818152602001828054610d2390614adf565b8015610d705780601f10610d4557610100808354040283529160200191610d70565b820191906000526020600020905b815481529060010190602001808311610d5357829003601f168201915b50505050508152602001600382018054610d8990614adf565b80601f0160208091040260200160405190810160405280929190818152602001828054610db590614adf565b8015610e025780601f10610dd757610100808354040283529160200191610e02565b820191906000526020600020905b815481529060010190602001808311610de557829003601f168201915b50505050508152602001600482018054610e1b90614adf565b80601f0160208091040260200160405190810160405280929190818152602001828054610e4790614adf565b8015610e945780601f10610e6957610100808354040283529160200191610e94565b820191906000526020600020905b815481529060010190602001808311610e7757829003601f168201915b50505050508152602001600582018054610ead90614adf565b80601f0160208091040260200160405190810160405280929190818152602001828054610ed990614adf565b8015610f265780601f10610efb57610100808354040283529160200191610f26565b820191906000526020600020905b815481529060010190602001808311610f0957829003601f168201915b50505050508152602001600682018054610f3f90614adf565b80601f0160208091040260200160405190810160405280929190818152602001828054610f6b90614adf565b8015610fb85780601f10610f8d57610100808354040283529160200191610fb8565b820191906000526020600020905b815481529060010190602001808311610f9b57829003601f168201915b505050505081526020016007820160009054906101000a900473ffffffffffffffffffffffffffffffffffffffff1673ffffffffffffffffffffffffffffffffffffffff1673ffffffffffffffffffffffffffffffffffffffff1681526020016008820160009054906101000a900473ffffffffffffffffffffffffffffffffffffffff1673ffffffffffffffffffffffffffffffffffffffff1673ffffffffffffffffffffffffffffffffffffffff1681526020016008820160149054906101000a900460ff1660ff1660ff16815260200160098201600580602002604051908101604052809291906000905b828210156111495783820180546110bc90614adf565b80601f01602080910402602001604051908101604052809291908181526020018280546110e890614adf565b80156111355780601f1061110a57610100808354040283529160200191611135565b820191906000526020600020905b81548152906001019060200180831161111857829003601f168201915b5050505050815260200190600101906110a6565b505050508152602001600e82016005806020026040519081016040528092919082600580156111c2576020028201916000905b82829054906101000a900460ff16600381111561119c5761119b61452f565b5b8152602001906001019060208260000104928301926001038202915080841161117c5790505b5050505050815250509050600081610120015160ff1690506000811461121d576040517f08c379a000000000000000000000000000000000000000000000000000000000815260040161121490614b5c565b60405180910390fd5b600160038111156112315761123061452f565b5b82610160015160006005811061124a57611249614b7c565b5b602002015160038111156112615761126061452f565b5b146112a1576040517f08c379a000000000000000000000000000000000000000000000000000000000815260040161129890614bf7565b60405180910390fd5b600160038111156112b5576112b461452f565b5b8261016001516001600581106112ce576112cd614b7c565b5b602002015160038111156112e5576112e461452f565b5b14611325576040517f08c379a000000000000000000000000000000000000000000000000000000000815260040161131c90614c63565b60405180910390fd5b600160038111156113395761133861452f565b5b82610160015160026005811061135257611351614b7c565b5b602002015160038111156113695761136861452f565b5b146113a9576040517f08c379a00000000000000000000000000000000000000000000000000000000081526004016113a090614ccf565b60405180910390fd5b600160038111156113bd576113bc61452f565b5b8261016001516003600581106113d6576113d5614b7c565b5b602002015160038111156113ed576113ec61452f565b5b1461142d576040517f08c379a000000000000000000000000000000000000000000000000000000000815260040161142490614d3b565b60405180910390fd5b600160038111156114415761144061452f565b5b82610160015160046005811061145a57611459614b7c565b5b602002015160038111156114715761147061452f565b5b146114b1576040517f08c379a00000000000000000000000000000000000000000000000000000000081526004016114a890614da7565b60405180910390fd5b60006040518060e00160405280846000015181526020018460400151815260200184606001518152602001846080015181526020018460c0015181526020018461014001518152602001846101600151815250905080600460008681526020019081526020016000206000820151816000015560208201518160010190816115399190614f73565b50604082015181600201908161154f9190614f73565b5060608201518160030190816115659190614f73565b50608082015181600401908161157b9190614f73565b5060a082015181600501906005611593929190613973565b5060c082015181600a019060056115ab9291906139bf565b50905050600060058460a001516040516115c59190615081565b9081526020016040518091039020805490509050600181111561174b5760006001826115f191906150c7565b67ffffffffffffffff81111561160a57611609613d39565b5b6040519080825280602002602001820160405280156116385781602001602082028036833780820191505090505b5090506000805b8381101561170c578760058860a0015160405161165c9190615081565b9081526020016040518091039020828154811061167c5761167b614b7c565b5b9060005260206000200154146116f95760058760a001516040516116a09190615081565b908152602001604051809103902081815481106116c0576116bf614b7c565b5b90600052602060002001548383815181106116de576116dd614b7c565b5b60200260200101818152505081806116f5906150fb565b9250505b8080611704906150fb565b91505061163f565b508160058760a001516040516117229190615081565b90815260200160405180910390209080519060200190611743929190613a68565b5050506117cc565b600067ffffffffffffffff81111561176657611765613d39565b5b6040519080825280602002602001820160405280156117945781602001602082028036833780820191505090505b5060058560a001516040516117a99190615081565b908152602001604051809103902090805190602001906117ca929190613a68565b505b600060058560c001516040516117e29190615081565b908152602001604051809103902080549050905060006001826118059190615143565b67ffffffffffffffff81111561181e5761181d613d39565b5b60405190808252806020026020018201604052801561184c5781602001602082028036833780820191505090505b50905060005b828110156118cb5760058760c0015160405161186e9190615081565b9081526020016040518091039020818154811061188e5761188d614b7c565b5b90600052602060002001548282815181106118ac576118ab614b7c565b5b60200260200101818152505080806118c3906150fb565b915050611852565b5085600001518183815181106118e4576118e3614b7c565b5b6020026020010181815250508060058760c001516040516119059190615081565b90815260200160405180910390209080519060200190611926929190613a68565b508560000151600687604001516040516119409190615081565b90815260200160405180910390208190555085600001516007876060015160405161196b9190615081565b90815260200160405180910390208190555060036000876000015181526020019081526020016000206000808201600090556001820160006101000a81549073ffffffffffffffffffffffffffffffffffffffff02191690556002820160006119d49190613ab5565b6003820160006119e49190613ab5565b6004820160006119f49190613ab5565b600582016000611a049190613ab5565b600682016000611a149190613ab5565b6007820160006101000a81549073ffffffffffffffffffffffffffffffffffffffff02191690556008820160006101000a81549073ffffffffffffffffffffffffffffffffffffffff02191690556008820160146101000a81549060ff0219169055600982016000611a869190613af5565b600e82016000611a969190613b08565b50508560c00151604051611aaa9190615081565b60405180910390208660a00151604051611ac49190615081565b604051809103902087600001517fca4a99f6e8b89e970d8586b120d211e48f85272f8925990687b53373ec0205de60405160405180910390a450505050505050565b611b307f454d504c4f5945520000000000000000000000000000000000000000000000003361246e565b611b6f576040517f08c379a0000000000000000000000000000000000000000000000000000000008152600401611b66906151e9565b60405180910390fd5b60011515600960008773ffffffffffffffffffffffffffffffffffffffff1673ffffffffffffffffffffffffffffffffffffffff16815260200190815260200160002060003373ffffffffffffffffffffffffffffffffffffffff1673ffffffffffffffffffffffffffffffffffffffff16815260200190815260200160002060009054906101000a900460ff16151514611c3f576040517f08c379a0000000000000000000000000000000000000000000000000000000008152600401611c3690614a90565b60405180910390fd5b6000600685604051611c519190615081565b90815260200160405180910390205414611ca0576040517f08c379a0000000000000000000000000000000000000000000000000000000008152600401611c979061527b565b60405180910390fd5b6000600784604051611cb29190615081565b90815260200160405180910390205414611d01576040517f08c379a0000000000000000000000000000000000000000000000000000000008152600401611cf89061530d565b60405180910390fd5b6000600154905060016000815480929190611d1b906150fb565b9190505550611d308186868686878c8d612ee7565b505050505050565b6000806000838152602001908152602001600020600101549050919050565b611d6082611d38565b611d69816133e6565b611d7383836133fa565b505050565b611d806134da565b73ffffffffffffffffffffffffffffffffffffffff168173ffffffffffffffffffffffffffffffffffffffff1614611ded576040517f08c379a0000000000000000000000000000000000000000000000000000000008152600401611de49061539f565b60405180910390fd5b611df782826134e2565b5050565b611e03613b0f565b6003600083815260200190815260200160002060405180610180016040529081600082015481526020016001820160009054906101000a900473ffffffffffffffffffffffffffffffffffffffff1673ffffffffffffffffffffffffffffffffffffffff1673ffffffffffffffffffffffffffffffffffffffff168152602001600282018054611e9290614adf565b80601f0160208091040260200160405190810160405280929190818152602001828054611ebe90614adf565b8015611f0b5780601f10611ee057610100808354040283529160200191611f0b565b820191906000526020600020905b815481529060010190602001808311611eee57829003601f168201915b50505050508152602001600382018054611f2490614adf565b80601f0160208091040260200160405190810160405280929190818152602001828054611f5090614adf565b8015611f9d5780601f10611f7257610100808354040283529160200191611f9d565b820191906000526020600020905b815481529060010190602001808311611f8057829003601f168201915b50505050508152602001600482018054611fb690614adf565b80601f0160208091040260200160405190810160405280929190818152602001828054611fe290614adf565b801561202f5780601f106120045761010080835404028352916020019161202f565b820191906000526020600020905b81548152906001019060200180831161201257829003601f168201915b5050505050815260200160058201805461204890614adf565b80601f016020809104026020016040519081016040528092919081815260200182805461207490614adf565b80156120c15780601f10612096576101008083540402835291602001916120c1565b820191906000526020600020905b8154815290600101906020018083116120a457829003601f168201915b505050505081526020016006820180546120da90614adf565b80601f016020809104026020016040519081016040528092919081815260200182805461210690614adf565b80156121535780601f1061212857610100808354040283529160200191612153565b820191906000526020600020905b81548152906001019060200180831161213657829003601f168201915b505050505081526020016007820160009054906101000a900473ffffffffffffffffffffffffffffffffffffffff1673ffffffffffffffffffffffffffffffffffffffff1673ffffffffffffffffffffffffffffffffffffffff1681526020016008820160009054906101000a900473ffffffffffffffffffffffffffffffffffffffff1673ffffffffffffffffffffffffffffffffffffffff1673ffffffffffffffffffffffffffffffffffffffff1681526020016008820160149054906101000a900460ff1660ff1660ff16815260200160098201600580602002604051908101604052809291906000905b828210156122e457838201805461225790614adf565b80601f016020809104026020016040519081016040528092919081815260200182805461228390614adf565b80156122d05780601f106122a5576101008083540402835291602001916122d0565b820191906000526020600020905b8154815290600101906020018083116122b357829003601f168201915b505050505081526020019060010190612241565b505050508152602001600e820160058060200260405190810160405280929190826005801561235d576020028201916000905b82829054906101000a900460ff1660038111156123375761233661452f565b5b815260200190600101906020826000010492830192600103820291508084116123175790505b5050505050815250509050919050565b6123977f53544154455300000000000000000000000000000000000000000000000000003361246e565b6123d6576040517f08c379a00000000000000000000000000000000000000000000000000000000081526004016123cd9061540b565b60405180910390fd5b6001600960003373ffffffffffffffffffffffffffffffffffffffff1673ffffffffffffffffffffffffffffffffffffffff16815260200190815260200160002060008373ffffffffffffffffffffffffffffffffffffffff1673ffffffffffffffffffffffffffffffffffffffff16815260200190815260200160002060006101000a81548160ff02191690831515021790555050565b600080600084815260200190815260200160002060000160008373ffffffffffffffffffffffffffffffffffffffff1673ffffffffffffffffffffffffffffffffffffffff16815260200190815260200160002060009054906101000a900460ff16905092915050565b6000801b81565b60086000848152602001908152602001600020600083815260200190815260200160002060009054906101000a900460ff16612550576040517f08c379a000000000000000000000000000000000000000000000000000000000815260040161254790615477565b60405180910390fd5b61255a823361246e565b612599576040517f08c379a0000000000000000000000000000000000000000000000000000000008152600401612590906154e3565b60405180910390fd5b60006003600086815260200190815260200160002090506040518060400160405280600981526020017f4e4f545349474e454400000000000000000000000000000000000000000000008152506040516020016125f6919061553f565b6040516020818303038152906040528051906020012081600901856005811061262257612621614b7c565b5b0160405160200161263391906155ee565b6040516020818303038152906040528051906020012014612689576040517f08c379a000000000000000000000000000000000000000000000000000000000815260040161268090615651565b60405180910390fd5b600260009054906101000a900473ffffffffffffffffffffffffffffffffffffffff1673ffffffffffffffffffffffffffffffffffffffff1663d5dbb7e133836000015484600201856003018660040187600501886006018a6040518963ffffffff1660e01b815260040161270598979695949392919061573f565b602060405180830381865afa158015612722573d6000803e3d6000fd5b505050506040513d601f19601f820116820180604052508101906127469190615813565b15612834576127896040518060400160405280600681526020017f61636365707400000000000000000000000000000000000000000000000000008152506135c3565b600181600e0185600581106127a1576127a0614b7c565b5b602091828204019190066101000a81548160ff021916908360038111156127cb576127ca61452f565b5b0217905550818160090185600581106127e7576127e6614b7c565b5b0190816127f49190615886565b5080600801601481819054906101000a900460ff168092919061281690615958565b91906101000a81548160ff021916908360ff160217905550506129f4565b600260009054906101000a900473ffffffffffffffffffffffffffffffffffffffff1673ffffffffffffffffffffffffffffffffffffffff1663d5ba17f63387856040518463ffffffff1660e01b815260040161289393929190615981565b602060405180830381865afa1580156128b0573d6000803e3d6000fd5b505050506040513d601f19601f820116820180604052508101906128d49190615813565b156129f3576129176040518060400160405280600781526020017f6465636c696e65000000000000000000000000000000000000000000000000008152506135c3565b600281600e01856005811061292f5761292e614b7c565b5b602091828204019190066101000a81548160ff021916908360038111156129595761295861452f565b5b02179055506040518060400160405280600881526020017f4445434c494e45440000000000000000000000000000000000000000000000008152508160090185600581106129aa576129a9614b7c565b5b0190816129b79190615886565b5080600801601481819054906101000a900460ff16809291906129d990615958565b91906101000a81548160ff021916908360ff160217905550505b5b5050505050565b612a0482611d38565b612a0d816133e6565b612a1783836134e2565b505050565b612a24613bc1565b600460008381526020019081526020016000206040518060e001604052908160008201548152602001600182018054612a5c90614adf565b80601f0160208091040260200160405190810160405280929190818152602001828054612a8890614adf565b8015612ad55780601f10612aaa57610100808354040283529160200191612ad5565b820191906000526020600020905b815481529060010190602001808311612ab857829003601f168201915b50505050508152602001600282018054612aee90614adf565b80601f0160208091040260200160405190810160405280929190818152602001828054612b1a90614adf565b8015612b675780601f10612b3c57610100808354040283529160200191612b67565b820191906000526020600020905b815481529060010190602001808311612b4a57829003601f168201915b50505050508152602001600382018054612b8090614adf565b80601f0160208091040260200160405190810160405280929190818152602001828054612bac90614adf565b8015612bf95780601f10612bce57610100808354040283529160200191612bf9565b820191906000526020600020905b815481529060010190602001808311612bdc57829003601f168201915b50505050508152602001600482018054612c1290614adf565b80601f0160208091040260200160405190810160405280929190818152602001828054612c3e90614adf565b8015612c8b5780601f10612c6057610100808354040283529160200191612c8b565b820191906000526020600020905b815481529060010190602001808311612c6e57829003601f168201915b5050505050815260200160058201600580602002604051908101604052809291906000905b82821015612d53578382018054612cc690614adf565b80601f0160208091040260200160405190810160405280929190818152602001828054612cf290614adf565b8015612d3f5780601f10612d1457610100808354040283529160200191612d3f565b820191906000526020600020905b815481529060010190602001808311612d2257829003601f168201915b505050505081526020019060010190612cb0565b505050508152602001600a8201600580602002604051908101604052809291908260058015612dcc576020028201916000905b82829054906101000a900460ff166003811115612da657612da561452f565b5b81526020019060010190602082600001049283019260010382029150808411612d865790505b5050505050815250509050919050565b6000600154905090565b612e107f53544154455300000000000000000000000000000000000000000000000000003361246e565b612e4f576040517f08c379a0000000000000000000000000000000000000000000000000000000008152600401612e4690615a0b565b60405180910390fd5b6000600960003373ffffffffffffffffffffffffffffffffffffffff1673ffffffffffffffffffffffffffffffffffffffff16815260200190815260200160002060008373ffffffffffffffffffffffffffffffffffffffff1673ffffffffffffffffffffffffffffffffffffffff16815260200190815260200160002060006101000a81548160ff02191690831515021790555050565b6040518061018001604052808981526020013373ffffffffffffffffffffffffffffffffffffffff1681526020018881526020018781526020018681526020018581526020018481526020018373ffffffffffffffffffffffffffffffffffffffff1681526020018273ffffffffffffffffffffffffffffffffffffffff168152602001600560ff1681526020016040518060a001604052806040518060400160405280600981526020017f4e4f545349474e4544000000000000000000000000000000000000000000000081525081526020016040518060400160405280600981526020017f4e4f545349474e4544000000000000000000000000000000000000000000000081525081526020016040518060400160405280600981526020017f4e4f545349474e4544000000000000000000000000000000000000000000000081525081526020016040518060400160405280600981526020017f4e4f545349474e4544000000000000000000000000000000000000000000000081525081526020016040518060400160405280600981526020017f4e4f545349474e4544000000000000000000000000000000000000000000000081525081525081526020016040518060a00160405280600060038111156130c9576130c861452f565b5b60038111156130db576130da61452f565b5b8152602001600060038111156130f4576130f361452f565b5b60038111156131065761310561452f565b5b81526020016000600381111561311f5761311e61452f565b5b60038111156131315761313061452f565b5b81526020016000600381111561314a5761314961452f565b5b600381111561315c5761315b61452f565b5b8152602001600060038111156131755761317461452f565b5b60038111156131875761318661452f565b5b815250815250600360008a81526020019081526020016000206000820151816000015560208201518160010160006101000a81548173ffffffffffffffffffffffffffffffffffffffff021916908373ffffffffffffffffffffffffffffffffffffffff16021790555060408201518160020190816132069190614f73565b50606082015181600301908161321c9190614f73565b5060808201518160040190816132329190614f73565b5060a08201518160050190816132489190614f73565b5060c082015181600601908161325e9190614f73565b5060e08201518160070160006101000a81548173ffffffffffffffffffffffffffffffffffffffff021916908373ffffffffffffffffffffffffffffffffffffffff1602179055506101008201518160080160006101000a81548173ffffffffffffffffffffffffffffffffffffffff021916908373ffffffffffffffffffffffffffffffffffffffff1602179055506101208201518160080160146101000a81548160ff021916908360ff16021790555061014082015181600901906005613328929190613973565b5061016082015181600e019060056133419291906139bf565b50905050877f248dd4076d0a389d795107efafd558ce7f31ae37b441ccb9a599c60868f480d560405160405180910390a25050505050505050565b60007f01ffc9a7000000000000000000000000000000000000000000000000000000007bffffffffffffffffffffffffffffffffffffffffffffffffffffffff1916827bffffffffffffffffffffffffffffffffffffffffffffffffffffffff1916149050919050565b6133f7816133f26134da565b61365c565b50565b613404828261246e565b6134d657600160008084815260200190815260200160002060000160008373ffffffffffffffffffffffffffffffffffffffff1673ffffffffffffffffffffffffffffffffffffffff16815260200190815260200160002060006101000a81548160ff02191690831515021790555061347b6134da565b73ffffffffffffffffffffffffffffffffffffffff168173ffffffffffffffffffffffffffffffffffffffff16837f2f8788117e7eff1d82e926ec794901d17c78024a50270940304540a733656f0d60405160405180910390a45b5050565b600033905090565b6134ec828261246e565b156135bf57600080600084815260200190815260200160002060000160008373ffffffffffffffffffffffffffffffffffffffff1673ffffffffffffffffffffffffffffffffffffffff16815260200190815260200160002060006101000a81548160ff0219169083151502179055506135646134da565b73ffffffffffffffffffffffffffffffffffffffff168173ffffffffffffffffffffffffffffffffffffffff16837ff6391f5c32d9c69d2a47ea670b442974b53935d1edc7fd64eb21e047a839171b60405160405180910390a45b5050565b613659816040516024016135d79190615a2b565b6040516020818303038152906040527f41304fac000000000000000000000000000000000000000000000000000000007bffffffffffffffffffffffffffffffffffffffffffffffffffffffff19166020820180517bffffffffffffffffffffffffffffffffffffffffffffffffffffffff83818316178352505050506136e1565b50565b613666828261246e565b6136dd576136738161370a565b6136818360001c6020613737565b604051602001613692929190615ae5565b6040516020818303038152906040526040517f08c379a00000000000000000000000000000000000000000000000000000000081526004016136d49190615a2b565b60405180910390fd5b5050565b60008151905060006a636f6e736f6c652e6c6f679050602083016000808483855afa5050505050565b60606137308273ffffffffffffffffffffffffffffffffffffffff16601460ff16613737565b9050919050565b60606000600283600261374a9190615b1f565b6137549190615143565b67ffffffffffffffff81111561376d5761376c613d39565b5b6040519080825280601f01601f19166020018201604052801561379f5781602001600182028036833780820191505090505b5090507f3000000000000000000000000000000000000000000000000000000000000000816000815181106137d7576137d6614b7c565b5b60200101907effffffffffffffffffffffffffffffffffffffffffffffffffffffffffffff1916908160001a9053507f78000000000000000000000000000000000000000000000000000000000000008160018151811061383b5761383a614b7c565b5b60200101907effffffffffffffffffffffffffffffffffffffffffffffffffffffffffffff1916908160001a9053506000600184600261387b9190615b1f565b6138859190615143565b90505b6001811115613925577f3031323334353637383961626364656600000000000000000000000000000000600f8616601081106138c7576138c6614b7c565b5b1a60f81b8282815181106138de576138dd614b7c565b5b60200101907effffffffffffffffffffffffffffffffffffffffffffffffffffffffffffff1916908160001a905350600485901c94508061391e90615b61565b9050613888565b5060008414613969576040517f08c379a000000000000000000000000000000000000000000000000000000000815260040161396090615bd6565b60405180910390fd5b8091505092915050565b82600581019282156139ae579160200282015b828111156139ad57825182908161399d9190615886565b5091602001919060010190613986565b5b5090506139bb9190613c0a565b5090565b826005601f01602090048101928215613a575791602002820160005b83821115613a2857835183826101000a81548160ff02191690836003811115613a0757613a0661452f565b5b021790555092602001926001016020816000010492830192600103026139db565b8015613a555782816101000a81549060ff0219169055600101602081600001049283019260010302613a28565b505b509050613a649190613c2e565b5090565b828054828255906000526020600020908101928215613aa4579160200282015b82811115613aa3578251825591602001919060010190613a88565b5b509050613ab19190613c2e565b5090565b508054613ac190614adf565b6000825580601f10613ad35750613af2565b601f016020900490600052602060002090810190613af19190613c2e565b5b50565b508060050190613b059190613c0a565b50565b5060009055565b60405180610180016040528060008152602001600073ffffffffffffffffffffffffffffffffffffffff1681526020016060815260200160608152602001606081526020016060815260200160608152602001600073ffffffffffffffffffffffffffffffffffffffff168152602001600073ffffffffffffffffffffffffffffffffffffffff168152602001600060ff168152602001613bae613c4b565b8152602001613bbb613c72565b81525090565b6040518060e001604052806000815260200160608152602001606081526020016060815260200160608152602001613bf7613c4b565b8152602001613c04613c72565b81525090565b5b80821115613c2a5760008181613c219190613c94565b50600101613c0b565b5090565b5b80821115613c47576000816000905550600101613c2f565b5090565b6040518060a001604052806005905b6060815260200190600190039081613c5a5790505090565b6040518060a00160405280600590602082028036833780820191505090505090565b508054613ca090614adf565b6000825580601f10613cb25750613cd1565b601f016020900490600052602060002090810190613cd09190613c2e565b5b50565b6000604051905090565b600080fd5b600080fd5b6000819050919050565b613cfb81613ce8565b8114613d0657600080fd5b50565b600081359050613d1881613cf2565b92915050565b600080fd5b600080fd5b6000601f19601f8301169050919050565b7f4e487b7100000000000000000000000000000000000000000000000000000000600052604160045260246000fd5b613d7182613d28565b810181811067ffffffffffffffff82111715613d9057613d8f613d39565b5b80604052505050565b6000613da3613cd4565b9050613daf8282613d68565b919050565b600067ffffffffffffffff821115613dcf57613dce613d39565b5b613dd882613d28565b9050602081019050919050565b82818337600083830152505050565b6000613e07613e0284613db4565b613d99565b905082815260208101848484011115613e2357613e22613d23565b5b613e2e848285613de5565b509392505050565b600082601f830112613e4b57613e4a613d1e565b5b8135613e5b848260208601613df4565b91505092915050565b600073ffffffffffffffffffffffffffffffffffffffff82169050919050565b6000613e8f82613e64565b9050919050565b613e9f81613e84565b8114613eaa57600080fd5b50565b600081359050613ebc81613e96565b92915050565b600080600080600060a08688031215613ede57613edd613cde565b5b6000613eec88828901613d09565b955050602086013567ffffffffffffffff811115613f0d57613f0c613ce3565b5b613f1988828901613e36565b945050604086013567ffffffffffffffff811115613f3a57613f39613ce3565b5b613f4688828901613e36565b9350506060613f5788828901613ead565b9250506080613f6888828901613ead565b9150509295509295909350565b60007fffffffff0000000000000000000000000000000000000000000000000000000082169050919050565b613faa81613f75565b8114613fb557600080fd5b50565b600081359050613fc781613fa1565b92915050565b600060208284031215613fe357613fe2613cde565b5b6000613ff184828501613fb8565b91505092915050565b60008115159050919050565b61400f81613ffa565b82525050565b600060208201905061402a6000830184614006565b92915050565b60006020828403121561404657614045613cde565b5b600061405484828501613d09565b91505092915050565b61406681613ce8565b82525050565b61407581613e84565b82525050565b600081519050919050565b600082825260208201905092915050565b60005b838110156140b557808201518184015260208101905061409a565b60008484015250505050565b60006140cc8261407b565b6140d68185614086565b93506140e6818560208601614097565b6140ef81613d28565b840191505092915050565b600060ff82169050919050565b614110816140fa565b82525050565b60006101408201905061412c600083018d61405d565b614139602083018c61406c565b818103604083015261414b818b6140c1565b9050818103606083015261415f818a6140c1565b9050818103608083015261417381896140c1565b905081810360a083015261418781886140c1565b905081810360c083015261419b81876140c1565b90506141aa60e083018661406c565b6141b861010083018561406c565b6141c6610120830184614107565b9b9a5050505050505050505050565b600080600080600060a086880312156141f1576141f0613cde565b5b60006141ff88828901613ead565b955050602086013567ffffffffffffffff8111156142205761421f613ce3565b5b61422c88828901613e36565b945050604086013567ffffffffffffffff81111561424d5761424c613ce3565b5b61425988828901613e36565b935050606086013567ffffffffffffffff81111561427a57614279613ce3565b5b61428688828901613e36565b925050608086013567ffffffffffffffff8111156142a7576142a6613ce3565b5b6142b388828901613e36565b9150509295509295909350565b6000819050919050565b6142d3816142c0565b81146142de57600080fd5b50565b6000813590506142f0816142ca565b92915050565b60006020828403121561430c5761430b613cde565b5b600061431a848285016142e1565b91505092915050565b61432c816142c0565b82525050565b60006020820190506143476000830184614323565b92915050565b6000806040838503121561436457614363613cde565b5b6000614372858286016142e1565b925050602061438385828601613ead565b9150509250929050565b61439681613ce8565b82525050565b6143a581613e84565b82525050565b600082825260208201905092915050565b60006143c78261407b565b6143d181856143ab565b93506143e1818560208601614097565b6143ea81613d28565b840191505092915050565b6143fe816140fa565b82525050565b600060059050919050565b600081905092915050565b6000819050919050565b600081519050919050565b600082825260208201905092915050565b600061444b82614424565b614455818561442f565b9350614465818560208601614097565b61446e81613d28565b840191505092915050565b60006144858383614440565b905092915050565b6000602082019050919050565b60006144a582614404565b6144af818561440f565b9350836020820285016144c18561441a565b8060005b858110156144fd57848403895281516144de8582614479565b94506144e98361448d565b925060208a019950506001810190506144c5565b50829750879550505050505092915050565b600060059050919050565b600081905092915050565b6000819050919050565b7f4e487b7100000000000000000000000000000000000000000000000000000000600052602160045260246000fd5b6004811061456f5761456e61452f565b5b50565b60008190506145808261455e565b919050565b600061459082614572565b9050919050565b6145a081614585565b82525050565b60006145b28383614597565b60208301905092915050565b6000602082019050919050565b6145d48161450f565b6145de818461451a565b92506145e982614525565b8060005b8381101561461a57815161460187826145a6565b965061460c836145be565b9250506001810190506145ed565b505050505050565b60006102008301600083015161463b600086018261438d565b50602083015161464e602086018261439c565b506040830151848203604086015261466682826143bc565b9150506060830151848203606086015261468082826143bc565b9150506080830151848203608086015261469a82826143bc565b91505060a083015184820360a08601526146b482826143bc565b91505060c083015184820360c08601526146ce82826143bc565b91505060e08301516146e360e086018261439c565b506101008301516146f861010086018261439c565b5061012083015161470d6101208601826143f5565b50610140830151848203610140860152614727828261449a565b91505061016083015161473e6101608601826145cb565b508091505092915050565b600060208201905081810360008301526147638184614622565b905092915050565b60006020828403121561478157614780613cde565b5b600061478f84828501613ead565b91505092915050565b600067ffffffffffffffff8211156147b3576147b2613d39565b5b6147bc82613d28565b9050602081019050919050565b60006147dc6147d784614798565b613d99565b9050828152602081018484840111156147f8576147f7613d23565b5b614803848285613de5565b509392505050565b600082601f8301126148205761481f613d1e565b5b81356148308482602086016147c9565b91505092915050565b6000806000806080858703121561485357614852613cde565b5b600061486187828801613d09565b945050602061487287828801613d09565b9350506040614883878288016142e1565b925050606085013567ffffffffffffffff8111156148a4576148a3613ce3565b5b6148b08782880161480b565b91505092959194509250565b6000610160830160008301516148d5600086018261438d565b50602083015184820360208601526148ed82826143bc565b9150506040830151848203604086015261490782826143bc565b9150506060830151848203606086015261492182826143bc565b9150506080830151848203608086015261493b82826143bc565b91505060a083015184820360a0860152614955828261449a565b91505060c083015161496a60c08601826145cb565b508091505092915050565b6000602082019050818103600083015261498f81846148bc565b905092915050565b60006020820190506149ac600083018461405d565b92915050565b7f4f6e6c7920656d706c6f796572732063616e207472616e73666572207265676960008201527f7374726174696f6e2063657274696669636174652e0000000000000000000000602082015250565b6000614a0e603583614086565b9150614a19826149b2565b604082019050919050565b60006020820190508181036000830152614a3d81614a01565b9050919050565b7f5354415445204f5220454d504c4f594552000000000000000000000000000000600082015250565b6000614a7a601183614086565b9150614a8582614a44565b602082019050919050565b60006020820190508181036000830152614aa981614a6d565b9050919050565b7f4e487b7100000000000000000000000000000000000000000000000000000000600052602260045260246000fd5b60006002820490506001821680614af757607f821691505b602082108103614b0a57614b09614ab0565b5b50919050565b7f4e6f20456e6f756768205369676e617465757200000000000000000000000000600082015250565b6000614b46601383614086565b9150614b5182614b10565b602082019050919050565b60006020820190508181036000830152614b7581614b39565b9050919050565b7f4e487b7100000000000000000000000000000000000000000000000000000000600052603260045260246000fd5b7f54686520476f7665726e6d656e7420686173206465636c696e65640000000000600082015250565b6000614be1601b83614086565b9150614bec82614bab565b602082019050919050565b60006020820190508181036000830152614c1081614bd4565b9050919050565b7f54686520456d706c6f79657220686173206465636c696e656400000000000000600082015250565b6000614c4d601983614086565b9150614c5882614c17565b602082019050919050565b60006020820190508181036000830152614c7c81614c40565b9050919050565b7f54686520506f6c69636520686173206465636c696e6564000000000000000000600082015250565b6000614cb9601783614086565b9150614cc482614c83565b602082019050919050565b60006020820190508181036000830152614ce881614cac565b9050919050565b7f54686520446a6f6e6461726d20686173206465636c696e656400000000000000600082015250565b6000614d25601983614086565b9150614d3082614cef565b602082019050919050565b60006020820190508181036000830152614d5481614d18565b9050919050565b7f54686520546178657320686173206465636c696e656400000000000000000000600082015250565b6000614d91601683614086565b9150614d9c82614d5b565b602082019050919050565b60006020820190508181036000830152614dc081614d84565b9050919050565b60008190508160005260206000209050919050565b60006020601f8301049050919050565b600082821b905092915050565b600060088302614e297fffffffffffffffffffffffffffffffffffffffffffffffffffffffffffffffff82614dec565b614e338683614dec565b95508019841693508086168417925050509392505050565b6000819050919050565b6000614e70614e6b614e6684613ce8565b614e4b565b613ce8565b9050919050565b6000819050919050565b614e8a83614e55565b614e9e614e9682614e77565b848454614df9565b825550505050565b600090565b614eb3614ea6565b614ebe818484614e81565b505050565b5b81811015614ee257614ed7600082614eab565b600181019050614ec4565b5050565b601f821115614f2757614ef881614dc7565b614f0184614ddc565b81016020851015614f10578190505b614f24614f1c85614ddc565b830182614ec3565b50505b505050565b600082821c905092915050565b6000614f4a60001984600802614f2c565b1980831691505092915050565b6000614f638383614f39565b9150826002028217905092915050565b614f7c8261407b565b67ffffffffffffffff811115614f9557614f94613d39565b5b614f9f8254614adf565b614faa828285614ee6565b600060209050601f831160018114614fdd5760008415614fcb578287015190505b614fd58582614f57565b86555061503d565b601f198416614feb86614dc7565b60005b8281101561501357848901518255600182019150602085019450602081019050614fee565b86831015615030578489015161502c601f891682614f39565b8355505b6001600288020188555050505b505050505050565b600081905092915050565b600061505b8261407b565b6150658185615045565b9350615075818560208601614097565b80840191505092915050565b600061508d8284615050565b915081905092915050565b7f4e487b7100000000000000000000000000000000000000000000000000000000600052601160045260246000fd5b60006150d282613ce8565b91506150dd83613ce8565b92508282039050818111156150f5576150f4615098565b5b92915050565b600061510682613ce8565b91507fffffffffffffffffffffffffffffffffffffffffffffffffffffffffffffffff820361513857615137615098565b5b600182019050919050565b600061514e82613ce8565b915061515983613ce8565b925082820190508082111561517157615170615098565b5b92915050565b7f4f6e6c7920656d706c6f796572732063616e206164642061206e65772072656760008201527f697374726174696f6e2063657274696669636174652e00000000000000000000602082015250565b60006151d3603683614086565b91506151de82615177565b604082019050919050565b60006020820190508181036000830152615202816151c6565b9050919050565b7f5468652056656869636c65204964656e74696669636174696f6e204e756d626560008201527f7220616c72656164792072656769737472656400000000000000000000000000602082015250565b6000615265603383614086565b915061527082615209565b604082019050919050565b6000602082019050818103600083015261529481615258565b9050919050565b7f5468652056656869636c6520526567697374726174696f6e20506c617465732060008201527f616c726561647920726567697374726564000000000000000000000000000000602082015250565b60006152f7603183614086565b91506153028261529b565b604082019050919050565b60006020820190508181036000830152615326816152ea565b9050919050565b7f416363657373436f6e74726f6c3a2063616e206f6e6c792072656e6f756e636560008201527f20726f6c657320666f722073656c660000000000000000000000000000000000602082015250565b6000615389602f83614086565b91506153948261532d565b604082019050919050565b600060208201905081810360008301526153b88161537c565b9050919050565b7f4f6e6c792073746174652063616e2061646420656d706c6f796572732e000000600082015250565b60006153f5601d83614086565b9150615400826153bf565b602082019050919050565b60006020820190508181036000830152615424816153e8565b9050919050565b7f5468697320726f6c65206973206e6f7420726567697374726564000000000000600082015250565b6000615461601a83614086565b915061546c8261542b565b602082019050919050565b6000602082019050818103600083015261549081615454565b9050919050565b7f6572726f72206f6e20726f6c6500000000000000000000000000000000000000600082015250565b60006154cd600d83614086565b91506154d882615497565b602082019050919050565b600060208201905081810360008301526154fc816154c0565b9050919050565b600081905092915050565b600061551982614424565b6155238185615503565b9350615533818560208601614097565b80840191505092915050565b600061554b828461550e565b915081905092915050565b60008190508160005260206000209050919050565b6000815461557881614adf565b6155828186615503565b9450600182166000811461559d57600181146155b2576155e5565b60ff19831686528115158202860193506155e5565b6155bb85615556565b60005b838110156155dd578154818901526001820191506020810190506155be565b838801955050505b50505092915050565b60006155fa828461556b565b915081905092915050565b7f416c7265616479205369676e6564000000000000000000000000000000000000600082015250565b600061563b600e83614086565b915061564682615605565b602082019050919050565b6000602082019050818103600083015261566a8161562e565b9050919050565b6000815461567e81614adf565b6156888186614086565b945060018216600081146156a357600181146156b9576156ec565b60ff1983168652811515602002860193506156ec565b6156c285614dc7565b60005b838110156156e4578154818901526001820191506020810190506156c5565b808801955050505b50505092915050565b600082825260208201905092915050565b600061571182614424565b61571b81856156f5565b935061572b818560208601614097565b61573481613d28565b840191505092915050565b600061010082019050615755600083018b61406c565b615762602083018a61405d565b81810360408301526157748189615671565b905081810360608301526157888188615671565b9050818103608083015261579c8187615671565b905081810360a08301526157b08186615671565b905081810360c08301526157c48185615671565b905081810360e08301526157d88184615706565b90509998505050505050505050565b6157f081613ffa565b81146157fb57600080fd5b50565b60008151905061580d816157e7565b92915050565b60006020828403121561582957615828613cde565b5b6000615837848285016157fe565b91505092915050565b601f8211156158815761585281615556565b61585b84614ddc565b8101602085101561586a578190505b61587e61587685614ddc565b830182614ec3565b50505b505050565b61588f82614424565b67ffffffffffffffff8111156158a8576158a7613d39565b5b6158b28254614adf565b6158bd828285615840565b600060209050601f8311600181146158f057600084156158de578287015190505b6158e88582614f57565b865550615950565b601f1984166158fe86615556565b60005b8281101561592657848901518255600182019150602085019450602081019050615901565b86831015615943578489015161593f601f891682614f39565b8355505b6001600288020188555050505b505050505050565b6000615963826140fa565b91506000820361597657615975615098565b5b600182039050919050565b6000606082019050615996600083018661406c565b6159a3602083018561405d565b81810360408301526159b58184615706565b9050949350505050565b7f4f6e6c792073746174652063616e2064656c65746520656d706c6f796572732e600082015250565b60006159f5602083614086565b9150615a00826159bf565b602082019050919050565b60006020820190508181036000830152615a24816159e8565b9050919050565b60006020820190508181036000830152615a4581846140c1565b905092915050565b7f416363657373436f6e74726f6c3a206163636f756e7420000000000000000000600082015250565b6000615a83601783615045565b9150615a8e82615a4d565b601782019050919050565b7f206973206d697373696e6720726f6c6520000000000000000000000000000000600082015250565b6000615acf601183615045565b9150615ada82615a99565b601182019050919050565b6000615af082615a76565b9150615afc8285615050565b9150615b0782615ac2565b9150615b138284615050565b91508190509392505050565b6000615b2a82613ce8565b9150615b3583613ce8565b9250828202615b4381613ce8565b91508282048414831517615b5a57615b59615098565b5b5092915050565b6000615b6c82613ce8565b915060008203615b7f57615b7e615098565b5b600182039050919050565b7f537472696e67733a20686578206c656e67746820696e73756666696369656e74600082015250565b6000615bc0602083614086565b9150615bcb82615b8a565b602082019050919050565b60006020820190508181036000830152615bef81615bb3565b905091905056fea26469706673582212203186bf0d96901525bebfb085f68897f1ee90c550493a4a1da65575c8bd4b216364736f6c63430008120033",
  "linkReferences": {},
  "deployedLinkReferences": {}
}